{
  "contractName": "boletosNFTs",
  "abi": [
    {
      "inputs": [
        {
          "internalType": "address",
          "name": "_propietario",
          "type": "address"
        },
        {
          "internalType": "address",
          "name": "_contratoPadre",
          "type": "address"
        },
        {
          "internalType": "address",
          "name": "_contratoNFT",
          "type": "address"
        }
      ],
      "stateMutability": "nonpayable",
      "type": "constructor"
    },
    {
      "inputs": [],
      "name": "propietario",
      "outputs": [
        {
          "internalType": "address",
          "name": "direccionPropietario",
          "type": "address"
        },
        {
          "internalType": "address",
          "name": "contratoPadre",
          "type": "address"
        },
        {
          "internalType": "address",
          "name": "contratoNFT",
          "type": "address"
        },
        {
          "internalType": "address",
          "name": "contratoUsuario",
          "type": "address"
        }
      ],
      "stateMutability": "view",
      "type": "function"
    },
    {
      "inputs": [
        {
          "internalType": "address",
          "name": "_propietario",
          "type": "address"
        },
        {
          "internalType": "uint256",
          "name": "_boleto",
          "type": "uint256"
        }
      ],
      "name": "mintBoleto",
      "outputs": [],
      "stateMutability": "nonpayable",
      "type": "function"
    }
  ],
  "bytecode": "0x608060405234801561001057600080fd5b50604051610703380380610703833981810160405281019061003291906101e8565b60405180608001604052808473ffffffffffffffffffffffffffffffffffffffff1681526020018373ffffffffffffffffffffffffffffffffffffffff1681526020018273ffffffffffffffffffffffffffffffffffffffff1681526020013073ffffffffffffffffffffffffffffffffffffffff168152506000808201518160000160006101000a81548173ffffffffffffffffffffffffffffffffffffffff021916908373ffffffffffffffffffffffffffffffffffffffff16021790555060208201518160010160006101000a81548173ffffffffffffffffffffffffffffffffffffffff021916908373ffffffffffffffffffffffffffffffffffffffff16021790555060408201518160020160006101000a81548173ffffffffffffffffffffffffffffffffffffffff021916908373ffffffffffffffffffffffffffffffffffffffff16021790555060608201518160030160006101000a81548173ffffffffffffffffffffffffffffffffffffffff021916908373ffffffffffffffffffffffffffffffffffffffff160217905550905050505050610280565b6000815190506101e281610269565b92915050565b6000806000606084860312156101fd57600080fd5b600061020b868287016101d3565b935050602061021c868287016101d3565b925050604061022d868287016101d3565b9150509250925092565b600061024282610249565b9050919050565b600073ffffffffffffffffffffffffffffffffffffffff82169050919050565b61027281610237565b811461027d57600080fd5b50565b6104748061028f6000396000f3fe608060405234801561001057600080fd5b50600436106100365760003560e01c8063120e85231461003b5780633c4f81cd14610057575b600080fd5b61005560048036038101906100509190610269565b610078565b005b61005f6101a1565b60405161006f94939291906102e6565b60405180910390f35b600060010160009054906101000a900473ffffffffffffffffffffffffffffffffffffffff1673ffffffffffffffffffffffffffffffffffffffff163373ffffffffffffffffffffffffffffffffffffffff161461010b576040517f08c379a000000000000000000000000000000000000000000000000000000000815260040161010290610354565b60405180910390fd5b600060020160009054906101000a900473ffffffffffffffffffffffffffffffffffffffff1673ffffffffffffffffffffffffffffffffffffffff1663a144819483836040518363ffffffff1660e01b815260040161016b92919061032b565b600060405180830381600087803b15801561018557600080fd5b505af1158015610199573d6000803e3d6000fd5b505050505050565b60008060000160009054906101000a900473ffffffffffffffffffffffffffffffffffffffff16908060010160009054906101000a900473ffffffffffffffffffffffffffffffffffffffff16908060020160009054906101000a900473ffffffffffffffffffffffffffffffffffffffff16908060030160009054906101000a900473ffffffffffffffffffffffffffffffffffffffff16905084565b60008135905061024e81610410565b92915050565b60008135905061026381610427565b92915050565b6000806040838503121561027c57600080fd5b600061028a8582860161023f565b925050602061029b85828601610254565b9150509250929050565b6102ae81610385565b82525050565b60006102c1602d83610374565b91506102cc826103c1565b604082019050919050565b6102e0816103b7565b82525050565b60006080820190506102fb60008301876102a5565b61030860208301866102a5565b61031560408301856102a5565b61032260608301846102a5565b95945050505050565b600060408201905061034060008301856102a5565b61034d60208301846102d7565b9392505050565b6000602082019050818103600083015261036d816102b4565b9050919050565b600082825260208201905092915050565b600061039082610397565b9050919050565b600073ffffffffffffffffffffffffffffffffffffffff82169050919050565b6000819050919050565b7f4e6f207469656e6573207065726d69736f73207061726120656a65637574617260008201527f20657374612066756e63696f6e00000000000000000000000000000000000000602082015250565b61041981610385565b811461042457600080fd5b50565b610430816103b7565b811461043b57600080fd5b5056fea26469706673582212206d859d2dbfda7930f2e8312fdbc1172305b12d2f93bcf52b108421e7e6d92c7264736f6c63430008040033",
  "immutableReferences": {},
  "source": "// SPDX-License-Identifier: MIT\npragma solidity ^0.8.4;\n\nimport \"@openzeppelin/contracts/token/ERC20/ERC20.sol\";\nimport \"@openzeppelin/contracts/token/ERC721/ERC721.sol\";\nimport \"@openzeppelin/contracts/access/Ownable.sol\";\n\ncontract loteria is ERC20, Ownable {\n\n    // ============================================\n    // Gestion de los tokens\n    // ============================================\n\n    // Direccion del contrato NFT del proyecto\n    address public nft;\n\n    // Constructor \n    constructor() ERC20(\"ChernoFortune\", \"LGEM\"){\n        _mint(address(this), 100000);\n        nft = address(new mainERC721());\n    }\n\n    // Ganador del premio de la loteria\n    address public ganador;\n    uint private  priceToken = 1 ether;\n\n    // Registro del usuario\n    mapping(address => address) public usuario_contract;\n\n\n    // Funcin para modificar el precio del Token\n    function modifyPrice(uint _newPrice) public onlyOwner {\n        priceToken=_newPrice;\n    }\n    function verPrecio() public view returns(uint){\n        return priceToken;\n    }\n\n    // Precio de los tokens ERC-20\n    function precioTokens(uint256 _numTokens) public view returns (uint256){\n        return _numTokens * (priceToken);\n    }\n\n    // Visualizacion del balance de tokens ERC-20 de un usuario\n    function balanceTokens(address _account) public view returns (uint256){\n        return balanceOf(_account);\n    }\n\n    // Visualizacion del balance de tokens ERC-20 del Smart Contract\n    function balanceTokensSC() public view returns (uint256){\n        return balanceOf(address(this));\n    }\n\n    // Visualizacion del balance de ethers del Smart Contract\n    function balanceEthersSC() public view returns (uint256){\n        return address(this).balance;\n    }\n\n    // Generacion de nuevos Tokens ERC-20\n    function mint(uint256 _cantidad) public onlyOwner {\n        _mint(address(this), _cantidad);\n    }\n\n    // Registro de usuarios\n    function registrar() internal {\n        require(usuario_contract[msg.sender]==address(0),'Ya estas Registrado');\n        address addr_personal_contract = address(new boletosNFTs(msg.sender, address(this), nft));\n        usuario_contract[msg.sender] = addr_personal_contract; \n    }\n\n    // Informacion de un usuario\n    function usersInfo(address _account) public view returns (address){\n        return usuario_contract[_account];\n    }\n\n    // Compra de tokens ERC-20\n    function compraTokens(uint256 _numTokens) public payable {\n        // Registro del ususario\n        if(usuario_contract[msg.sender] == address(0)){\n            registrar();\n        }\n        // Establecimiento del coste de los tokens a comprar\n        uint256 coste = precioTokens(_numTokens);\n        // Evaluacion del dinero que el cliente paga por los tokens\n        require(msg.value >= coste, \"Compra menos tokens o paga con mas ethers\");\n        // Obtencion del numero de tokens ERC-20 disponibles\n        uint256 balance = balanceTokensSC();\n        require(_numTokens <= balance, \"Compra un numero menor de tokens\");\n        // Devolucion del dinero sobrante\n        uint256 returnValue = msg.value - coste;\n        // El Smart Contract devuelve la cantidad restante\n        payable(msg.sender).transfer(returnValue);\n        // Envio de los tokens al cliente/usuario\n        _transfer(address(this), msg.sender, _numTokens);\n    }\n\n    // Devolucion de tokens al Smart Contract\n    function devolverTokens(uint _numTokens) public payable {\n        // El numero de tokens debe ser mayor a 0\n        require(_numTokens > 0, \"Necesitas devolver un numero de tokens mayor a 0\");\n        // El usuario debe acreditar tener los tokens que quiere devolver\n        require(_numTokens <= balanceTokens(msg.sender), \"No tienes los tokens que deseas devolver\");\n        // El usuario transfiere los tokens al Smart Contrac\n        _transfer(msg.sender, address(this), _numTokens);\n        // El Smart Contract envia los ethers al usuario\n        payable(msg.sender).transfer(precioTokens(_numTokens));\n    }\n\n    // ============================================\n    // Gestion de la loteria\n    // ============================================\n\n    struct Boleto{\n        uint256 numero;\n        bool played;\n    }\n\n    // Precio del boleto de loteria (en tokens ERC-20)\n    uint public precioBoleto = 5;\n    // Relacion: persona que compra los boletos -> el numero de los boletos\n    //mapping(address => uint []) idPersona_boletos;\n\n    mapping(address => Boleto[]) idPersona_boletos;\n    // Relacion: boleto -> ganador\n    mapping(uint => address) ADNBoleto;\n    // Numero aleatorio\n    uint randNonce = 0;\n    // Boletos de la loteria generadors\n    uint [] boletosComprados;\n    // Registro de todos los usuarios Activos\n    address[] public activeAccounts;\n\n    // Compra de boletos de loteria\n    function compraBoleto(uint _numBoletos) public {\n        // Precio total de los boletos a comprar\n        uint precioTotal = _numBoletos*precioBoleto;\n        // Verificacion de los tokens del usuario\n        require(precioTotal <= balanceTokens(msg.sender), \n                \"No tienes tokens suficientes\");\n        // Transferencia de tokens del usuario al Smart Contract\n        _transfer(msg.sender, address(this), precioTotal);\n        /* Recoge la marca de tiempo (block.timestamp), msg.sender y un Nonce\n        (un numero que solo se utiliza una vez, para que no ejecutemos dos veces la misma \n        funcion de hash con los mismos parametros de entrada) en incremento.\n        Se utiliza 'keccak256 'para convertir estas entradas a un hash aleatorio, \n        convertir ese hash a un uint y luego utilizamos % 10000 para tomar los ultimos 4 digitos,\n        dando un valor aleatorio entre 0 - 9999. */\n        for (uint i = 0; i < _numBoletos; i++){\n            uint random = uint(keccak256(abi.encodePacked(block.timestamp, msg.sender, randNonce))) % 10000;\n            randNonce++;\n            // Almacenamiento de los datos del boletos enlazados al usuario\n            //idPersona_boletos[msg.sender].push(random);\n            idPersona_boletos[msg.sender].push(Boleto(random,false));\n            // Almacenamiento de los datos de los boletos\n            boletosComprados.push(random);\n            // Asignacion del ADN del boleto para la generacion de un ganador\n            ADNBoleto[random] = msg.sender;\n            // Creacion de un nuevo NFT para el numero de boleto\n            boletosNFTs(usuario_contract[msg.sender]).mintBoleto(msg.sender, random);\n        }\n        if(!isPlaying(msg.sender)){\n            activeAccounts.push(msg.sender);\n        }\n    }\n\n    function isPlaying(address acount) internal view returns(bool){\n        for (uint256 i = 0; i < activeAccounts.length; i++) {\n            if (activeAccounts[i] == acount) {\n                return true; // La direccin se encuentra en el array\n            }\n        }\n        return false; // La direccin no se encuentra en el array\n    }\n    \n   \n\n    // Visualizacion de los boletos del usuario,que aun no han sido jugados\n  function tusBoletos(address _propietario) public view returns (uint[] memory) {\n    Boleto[] memory boletosAux = idPersona_boletos[_propietario];\n    uint256 count = 0;\n\n    // Contar la cantidad de boletos no jugados\n    for (uint256 i = 0; i < boletosAux.length; i++) {\n        if (!boletosAux[i].played) {\n            count++;\n        }\n    }\n\n    // Inicializar el array con la longitud adecuada\n    uint[] memory boletosNoJugados = new uint[](count);\n\n    // Asignar los valores de los boletos no jugados\n    uint256 j = 0;\n    for (uint256 i = 0; i < boletosAux.length; i++) {\n        if (!boletosAux[i].played) {\n            boletosNoJugados[j] = boletosAux[i].numero;\n            j++;\n        }\n    }\n\n    return boletosNoJugados;\n}\n\n    // Generacion del ganador de la loteria\n    function generarGanador() public onlyOwner {\n        // Declaracion de la longitud del array\n        uint longitud = boletosComprados.length;\n        // Verificacion de la compra de al menos de 1 boleto\n        require(longitud > 0, \"No hay boletos comprados\");\n        // Eleccion aleatoria de un numero entre: [0-Longitud]\n        uint random = uint(uint(keccak256(abi.encodePacked(block.timestamp))) % longitud);\n        // Seleccion del numero aleatorio\n        uint eleccion = boletosComprados[random];\n        // Direccion del ganador de la loteria\n        ganador = ADNBoleto[eleccion];\n        // Envio del 95% del premio de loteria al ganador\n        payable(ganador).transfer(address(this).balance * 95 / 100);\n        // Envio del 5% del premio de loteria al owner\n        payable(owner()).transfer(address(this).balance * 5 / 100);\n        \n        // Poner como played Todos los boletos jugados\n        for (uint256 i = 0; i < activeAccounts.length; i++) {\n            address aux = activeAccounts[i];\n            Boleto[] storage boletosAux = idPersona_boletos[aux];\n    \n            for (uint256 j = 0; j < boletosAux.length; j++) {\n                if (!boletosAux[j].played) {\n                    boletosAux[j].played = true;\n                }\n            }\n        }\n        activeAccounts = new address[](0);\n        boletosComprados=new uint[](0);\n\n    }\n    function setPrecioBoleto (uint _newPrice) public onlyOwner {\n        precioBoleto=_newPrice;\n    }\n\n}\n\n// Smart Contract de NFTs\ncontract mainERC721 is ERC721 {\n\n    address public direccionLoteria;\n    constructor() ERC721(\"Loteria\", \"STE\"){\n        direccionLoteria = msg.sender;\n    }\n\n    // Creacion de NFTs\n    function safeMint(address _propietario, uint256 _boleto) public {\n        require(msg.sender == loteria(direccionLoteria).usersInfo(_propietario),\n                \"No tienes permisos para ejecutar esta funcion\");\n        _safeMint(_propietario, _boleto);\n    }\n\n}\n\ncontract boletosNFTs {\n\n    // Datos relevantes del propietario \n    struct Owner {\n        address direccionPropietario;\n        address contratoPadre;\n        address contratoNFT;\n        address contratoUsuario;\n    }\n    // Estructura de datos de tipo Owner\n    Owner public propietario;\n\n    // Constructor del Smart Contract (hijo)\n    constructor(address _propietario, address _contratoPadre, address _contratoNFT){\n        propietario = Owner(_propietario, \n                            _contratoPadre,\n                            _contratoNFT, \n                            address(this));\n    }\n\n    // Conversion de los numeros de los boletos de loteria\n    function mintBoleto(address _propietario, uint _boleto) public {\n        require(msg.sender == propietario.contratoPadre, \n                \"No tienes permisos para ejecutar esta funcion\");\n        mainERC721(propietario.contratoNFT).safeMint(_propietario, _boleto);\n    }\n\n}\n",
  "sourcePath": "/Users/mateujoanperello/Desktop/Dapps/Loteria/src/contracts/loteria.sol",
  "compiler": {
    "name": "solc",
    "version": "0.8.4+commit.c7e474f2.Emscripten.clang"
  },
  "schemaVersion": "3.4.7",
  "updatedAt": "2023-06-13T17:15:35.636Z",
  "devdoc": {
    "kind": "dev",
    "methods": {},
    "version": 1
  },
  "userdoc": {
    "kind": "user",
    "methods": {},
    "version": 1
  }
}