{
  "contractName": "loteria",
  "abi": [
    {
      "inputs": [],
      "stateMutability": "nonpayable",
      "type": "constructor"
    },
    {
      "anonymous": false,
      "inputs": [
        {
          "indexed": true,
          "internalType": "address",
          "name": "owner",
          "type": "address"
        },
        {
          "indexed": true,
          "internalType": "address",
          "name": "spender",
          "type": "address"
        },
        {
          "indexed": false,
          "internalType": "uint256",
          "name": "value",
          "type": "uint256"
        }
      ],
      "name": "Approval",
      "type": "event"
    },
    {
      "anonymous": false,
      "inputs": [
        {
          "indexed": true,
          "internalType": "address",
          "name": "previousOwner",
          "type": "address"
        },
        {
          "indexed": true,
          "internalType": "address",
          "name": "newOwner",
          "type": "address"
        }
      ],
      "name": "OwnershipTransferred",
      "type": "event"
    },
    {
      "anonymous": false,
      "inputs": [
        {
          "indexed": true,
          "internalType": "address",
          "name": "from",
          "type": "address"
        },
        {
          "indexed": true,
          "internalType": "address",
          "name": "to",
          "type": "address"
        },
        {
          "indexed": false,
          "internalType": "uint256",
          "name": "value",
          "type": "uint256"
        }
      ],
      "name": "Transfer",
      "type": "event"
    },
    {
      "inputs": [
        {
          "internalType": "uint256",
          "name": "",
          "type": "uint256"
        }
      ],
      "name": "activeAccounts",
      "outputs": [
        {
          "internalType": "address",
          "name": "",
          "type": "address"
        }
      ],
      "stateMutability": "view",
      "type": "function",
      "constant": true
    },
    {
      "inputs": [
        {
          "internalType": "address",
          "name": "owner",
          "type": "address"
        },
        {
          "internalType": "address",
          "name": "spender",
          "type": "address"
        }
      ],
      "name": "allowance",
      "outputs": [
        {
          "internalType": "uint256",
          "name": "",
          "type": "uint256"
        }
      ],
      "stateMutability": "view",
      "type": "function",
      "constant": true
    },
    {
      "inputs": [
        {
          "internalType": "address",
          "name": "spender",
          "type": "address"
        },
        {
          "internalType": "uint256",
          "name": "amount",
          "type": "uint256"
        }
      ],
      "name": "approve",
      "outputs": [
        {
          "internalType": "bool",
          "name": "",
          "type": "bool"
        }
      ],
      "stateMutability": "nonpayable",
      "type": "function"
    },
    {
      "inputs": [
        {
          "internalType": "address",
          "name": "account",
          "type": "address"
        }
      ],
      "name": "balanceOf",
      "outputs": [
        {
          "internalType": "uint256",
          "name": "",
          "type": "uint256"
        }
      ],
      "stateMutability": "view",
      "type": "function",
      "constant": true
    },
    {
      "inputs": [],
      "name": "decimals",
      "outputs": [
        {
          "internalType": "uint8",
          "name": "",
          "type": "uint8"
        }
      ],
      "stateMutability": "view",
      "type": "function",
      "constant": true
    },
    {
      "inputs": [
        {
          "internalType": "address",
          "name": "spender",
          "type": "address"
        },
        {
          "internalType": "uint256",
          "name": "subtractedValue",
          "type": "uint256"
        }
      ],
      "name": "decreaseAllowance",
      "outputs": [
        {
          "internalType": "bool",
          "name": "",
          "type": "bool"
        }
      ],
      "stateMutability": "nonpayable",
      "type": "function"
    },
    {
      "inputs": [],
      "name": "ganador",
      "outputs": [
        {
          "internalType": "address",
          "name": "",
          "type": "address"
        }
      ],
      "stateMutability": "view",
      "type": "function",
      "constant": true
    },
    {
      "inputs": [
        {
          "internalType": "address",
          "name": "spender",
          "type": "address"
        },
        {
          "internalType": "uint256",
          "name": "addedValue",
          "type": "uint256"
        }
      ],
      "name": "increaseAllowance",
      "outputs": [
        {
          "internalType": "bool",
          "name": "",
          "type": "bool"
        }
      ],
      "stateMutability": "nonpayable",
      "type": "function"
    },
    {
      "inputs": [],
      "name": "name",
      "outputs": [
        {
          "internalType": "string",
          "name": "",
          "type": "string"
        }
      ],
      "stateMutability": "view",
      "type": "function",
      "constant": true
    },
    {
      "inputs": [],
      "name": "nft",
      "outputs": [
        {
          "internalType": "address",
          "name": "",
          "type": "address"
        }
      ],
      "stateMutability": "view",
      "type": "function",
      "constant": true
    },
    {
      "inputs": [],
      "name": "owner",
      "outputs": [
        {
          "internalType": "address",
          "name": "",
          "type": "address"
        }
      ],
      "stateMutability": "view",
      "type": "function",
      "constant": true
    },
    {
      "inputs": [],
      "name": "precioBoleto",
      "outputs": [
        {
          "internalType": "uint256",
          "name": "",
          "type": "uint256"
        }
      ],
      "stateMutability": "view",
      "type": "function",
      "constant": true
    },
    {
      "inputs": [],
      "name": "renounceOwnership",
      "outputs": [],
      "stateMutability": "nonpayable",
      "type": "function"
    },
    {
      "inputs": [],
      "name": "symbol",
      "outputs": [
        {
          "internalType": "string",
          "name": "",
          "type": "string"
        }
      ],
      "stateMutability": "view",
      "type": "function",
      "constant": true
    },
    {
      "inputs": [],
      "name": "totalSupply",
      "outputs": [
        {
          "internalType": "uint256",
          "name": "",
          "type": "uint256"
        }
      ],
      "stateMutability": "view",
      "type": "function",
      "constant": true
    },
    {
      "inputs": [
        {
          "internalType": "address",
          "name": "to",
          "type": "address"
        },
        {
          "internalType": "uint256",
          "name": "amount",
          "type": "uint256"
        }
      ],
      "name": "transfer",
      "outputs": [
        {
          "internalType": "bool",
          "name": "",
          "type": "bool"
        }
      ],
      "stateMutability": "nonpayable",
      "type": "function"
    },
    {
      "inputs": [
        {
          "internalType": "address",
          "name": "from",
          "type": "address"
        },
        {
          "internalType": "address",
          "name": "to",
          "type": "address"
        },
        {
          "internalType": "uint256",
          "name": "amount",
          "type": "uint256"
        }
      ],
      "name": "transferFrom",
      "outputs": [
        {
          "internalType": "bool",
          "name": "",
          "type": "bool"
        }
      ],
      "stateMutability": "nonpayable",
      "type": "function"
    },
    {
      "inputs": [
        {
          "internalType": "address",
          "name": "newOwner",
          "type": "address"
        }
      ],
      "name": "transferOwnership",
      "outputs": [],
      "stateMutability": "nonpayable",
      "type": "function"
    },
    {
      "inputs": [
        {
          "internalType": "address",
          "name": "",
          "type": "address"
        }
      ],
      "name": "usuario_contract",
      "outputs": [
        {
          "internalType": "address",
          "name": "",
          "type": "address"
        }
      ],
      "stateMutability": "view",
      "type": "function",
      "constant": true
    },
    {
      "inputs": [
        {
          "internalType": "uint256",
          "name": "_newPrice",
          "type": "uint256"
        }
      ],
      "name": "modifyPrice",
      "outputs": [],
      "stateMutability": "nonpayable",
      "type": "function"
    },
    {
      "inputs": [],
      "name": "verPrecio",
      "outputs": [
        {
          "internalType": "uint256",
          "name": "",
          "type": "uint256"
        }
      ],
      "stateMutability": "view",
      "type": "function",
      "constant": true
    },
    {
      "inputs": [
        {
          "internalType": "uint256",
          "name": "_numTokens",
          "type": "uint256"
        }
      ],
      "name": "precioTokens",
      "outputs": [
        {
          "internalType": "uint256",
          "name": "",
          "type": "uint256"
        }
      ],
      "stateMutability": "view",
      "type": "function",
      "constant": true
    },
    {
      "inputs": [
        {
          "internalType": "address",
          "name": "_account",
          "type": "address"
        }
      ],
      "name": "balanceTokens",
      "outputs": [
        {
          "internalType": "uint256",
          "name": "",
          "type": "uint256"
        }
      ],
      "stateMutability": "view",
      "type": "function",
      "constant": true
    },
    {
      "inputs": [],
      "name": "balanceTokensSC",
      "outputs": [
        {
          "internalType": "uint256",
          "name": "",
          "type": "uint256"
        }
      ],
      "stateMutability": "view",
      "type": "function",
      "constant": true
    },
    {
      "inputs": [],
      "name": "balanceEthersSC",
      "outputs": [
        {
          "internalType": "uint256",
          "name": "",
          "type": "uint256"
        }
      ],
      "stateMutability": "view",
      "type": "function",
      "constant": true
    },
    {
      "inputs": [
        {
          "internalType": "uint256",
          "name": "_cantidad",
          "type": "uint256"
        }
      ],
      "name": "mint",
      "outputs": [],
      "stateMutability": "nonpayable",
      "type": "function"
    },
    {
      "inputs": [
        {
          "internalType": "address",
          "name": "_account",
          "type": "address"
        }
      ],
      "name": "usersInfo",
      "outputs": [
        {
          "internalType": "address",
          "name": "",
          "type": "address"
        }
      ],
      "stateMutability": "view",
      "type": "function",
      "constant": true
    },
    {
      "inputs": [
        {
          "internalType": "uint256",
          "name": "_numTokens",
          "type": "uint256"
        }
      ],
      "name": "compraTokens",
      "outputs": [],
      "stateMutability": "payable",
      "type": "function",
      "payable": true
    },
    {
      "inputs": [
        {
          "internalType": "uint256",
          "name": "_numTokens",
          "type": "uint256"
        }
      ],
      "name": "devolverTokens",
      "outputs": [],
      "stateMutability": "payable",
      "type": "function",
      "payable": true
    },
    {
      "inputs": [
        {
          "internalType": "uint256",
          "name": "_numBoletos",
          "type": "uint256"
        }
      ],
      "name": "compraBoleto",
      "outputs": [],
      "stateMutability": "nonpayable",
      "type": "function"
    },
    {
      "inputs": [
        {
          "internalType": "address",
          "name": "_propietario",
          "type": "address"
        }
      ],
      "name": "tusBoletos",
      "outputs": [
        {
          "internalType": "uint256[]",
          "name": "",
          "type": "uint256[]"
        }
      ],
      "stateMutability": "view",
      "type": "function",
      "constant": true
    },
    {
      "inputs": [],
      "name": "generarGanador",
      "outputs": [],
      "stateMutability": "nonpayable",
      "type": "function"
    },
    {
      "inputs": [
        {
          "internalType": "uint256",
          "name": "_newPrice",
          "type": "uint256"
        }
      ],
      "name": "setPrecioBoleto",
      "outputs": [],
      "stateMutability": "nonpayable",
      "type": "function"
    }
  ],
  "bytecode": "0x6080604052670de0b6b3a76400006008556005600a556000600d553480156200002757600080fd5b506040518060400160405280600981526020017f4c6f74746f47656d7300000000000000000000000000000000000000000000008152506040518060400160405280600481526020017f4c47454d000000000000000000000000000000000000000000000000000000008152508160039080519060200190620000ac929190620003b5565b508060049080519060200190620000c5929190620003b5565b505050620000e8620000dc6200016f60201b60201c565b6200017760201b60201c565b620000fd30620186a06200023d60201b60201c565b6040516200010b9062000446565b604051809103906000f08015801562000128573d6000803e3d6000fd5b50600660006101000a81548173ffffffffffffffffffffffffffffffffffffffff021916908373ffffffffffffffffffffffffffffffffffffffff1602179055506200061f565b600033905090565b6000600560009054906101000a900473ffffffffffffffffffffffffffffffffffffffff16905081600560006101000a81548173ffffffffffffffffffffffffffffffffffffffff021916908373ffffffffffffffffffffffffffffffffffffffff1602179055508173ffffffffffffffffffffffffffffffffffffffff168173ffffffffffffffffffffffffffffffffffffffff167f8be0079c531659141344cd1fd0a4f28419497f9722a3daafe3b4186f6b6457e060405160405180910390a35050565b600073ffffffffffffffffffffffffffffffffffffffff168273ffffffffffffffffffffffffffffffffffffffff161415620002b0576040517f08c379a0000000000000000000000000000000000000000000000000000000008152600401620002a790620004ab565b60405180910390fd5b620002c460008383620003ab60201b60201c565b8060026000828254620002d89190620004fb565b92505081905550806000808473ffffffffffffffffffffffffffffffffffffffff1673ffffffffffffffffffffffffffffffffffffffff168152602001908152602001600020600082825401925050819055508173ffffffffffffffffffffffffffffffffffffffff16600073ffffffffffffffffffffffffffffffffffffffff167fddf252ad1be2c89b69c2b068fc378daa952ba7f163c4a11628f55a4df523b3ef836040516200038b9190620004cd565b60405180910390a3620003a760008383620003b060201b60201c565b5050565b505050565b505050565b828054620003c39062000562565b90600052602060002090601f016020900481019282620003e7576000855562000433565b82601f106200040257805160ff191683800117855562000433565b8280016001018555821562000433579182015b828111156200043257825182559160200191906001019062000415565b5b50905062000442919062000454565b5090565b612a0f80620046c083390190565b5b808211156200046f57600081600090555060010162000455565b5090565b600062000482601f83620004ea565b91506200048f82620005f6565b602082019050919050565b620004a58162000558565b82525050565b60006020820190508181036000830152620004c68162000473565b9050919050565b6000602082019050620004e460008301846200049a565b92915050565b600082825260208201905092915050565b6000620005088262000558565b9150620005158362000558565b9250827fffffffffffffffffffffffffffffffffffffffffffffffffffffffffffffffff038211156200054d576200054c62000598565b5b828201905092915050565b6000819050919050565b600060028204905060018216806200057b57607f821691505b60208210811415620005925762000591620005c7565b5b50919050565b7f4e487b7100000000000000000000000000000000000000000000000000000000600052601160045260246000fd5b7f4e487b7100000000000000000000000000000000000000000000000000000000600052602260045260246000fd5b7f45524332303a206d696e7420746f20746865207a65726f206164647265737300600082015250565b614091806200062f6000396000f3fe6080604052600436106200021e5760003560e01c80639114bde81162000127578063b934c38411620000af578063e51c9bdf1162000079578063e51c9bdf1462000803578063ee5ade831462000831578063f2fde38b1462000861578063f59e48db146200088f578063f9b4527a14620008bd576200021e565b8063b934c3841462000741578063bbe6b7011462000771578063c29dd7c9146200079f578063dd62ed3e14620007bf576200021e565b8063a0712d6811620000f1578063a0712d68146200065b578063a457c2d71462000689578063a9059cbb14620006cd578063ab3a5ce21462000711576200021e565b80639114bde81462000587578063912cf30414620005b757806392ef10d814620005fb57806395d89b41146200062b576200021e565b80633950935111620001ab57806370a08231116200017557806370a0823114620004df578063715018a6146200052357806389e25c28146200053d5780638da5cb5b1462000557576200021e565b80633950935114620003e357806347ccca0214620004275780635d0eaaaf14620004575780635f375c6c146200049b576200021e565b806323acfa8111620001ed57806323acfa81146200030b57806323b872dd146200034f5780632e95161c1462000393578063313ce56714620003b3576200021e565b806306fdde031462000223578063095ea7b3146200025357806318160ddd14620002975780632296a17a14620002c7575b600080fd5b3480156200023057600080fd5b506200023b62000901565b6040516200024a919062002ea3565b60405180910390f35b3480156200026057600080fd5b506200027f600480360381019062000279919062002927565b6200099b565b6040516200028e919062002e86565b60405180910390f35b348015620002a457600080fd5b50620002af620009c2565b604051620002be919062003109565b60405180910390f35b348015620002d457600080fd5b50620002f36004803603810190620002ed919062002968565b620009cc565b60405162000302919062002ddb565b60405180910390f35b3480156200031857600080fd5b5062000337600480360381019062000331919062002864565b62000a0c565b60405162000346919062002ddb565b60405180910390f35b3480156200035c57600080fd5b506200037b6004803603810190620003759190620028d1565b62000a3f565b6040516200038a919062002e86565b60405180910390f35b620003b16004803603810190620003ab919062002968565b62000a74565b005b348015620003c057600080fd5b50620003cb62000b6c565b604051620003da919062003126565b60405180910390f35b348015620003f057600080fd5b506200040f600480360381019062000409919062002927565b62000b75565b6040516200041e919062002e86565b60405180910390f35b3480156200043457600080fd5b506200043f62000bb4565b6040516200044e919062002ddb565b60405180910390f35b3480156200046457600080fd5b506200048360048036038101906200047d919062002864565b62000bda565b60405162000492919062002ddb565b60405180910390f35b348015620004a857600080fd5b50620004c76004803603810190620004c1919062002968565b62000c43565b604051620004d6919062003109565b60405180910390f35b348015620004ec57600080fd5b506200050b600480360381019062000505919062002864565b62000c5c565b6040516200051a919062003109565b60405180910390f35b3480156200053057600080fd5b506200053b62000ca4565b005b3480156200054a57600080fd5b506200055562000cbc565b005b3480156200056457600080fd5b506200056f620011de565b6040516200057e919062002ddb565b60405180910390f35b3480156200059457600080fd5b506200059f62001208565b604051620005ae919062002ddb565b60405180910390f35b348015620005c457600080fd5b50620005e36004803603810190620005dd919062002864565b6200122e565b604051620005f2919062002e62565b60405180910390f35b3480156200060857600080fd5b5062000613620014ff565b60405162000622919062003109565b60405180910390f35b3480156200063857600080fd5b506200064362001511565b60405162000652919062002ea3565b60405180910390f35b3480156200066857600080fd5b5062000687600480360381019062000681919062002968565b620015ab565b005b3480156200069657600080fd5b50620006b56004803603810190620006af919062002927565b620015c4565b604051620006c4919062002e86565b60405180910390f35b348015620006da57600080fd5b50620006f96004803603810190620006f3919062002927565b62001644565b60405162000708919062002e86565b60405180910390f35b3480156200071e57600080fd5b50620007296200166b565b60405162000738919062003109565b60405180910390f35b3480156200074e57600080fd5b506200075962001675565b60405162000768919062003109565b60405180910390f35b3480156200077e57600080fd5b506200079d600480360381019062000797919062002968565b6200167d565b005b620007bd6004803603810190620007b7919062002968565b62001691565b005b348015620007cc57600080fd5b50620007eb6004803603810190620007e5919062002890565b62001847565b604051620007fa919062003109565b60405180910390f35b3480156200081057600080fd5b506200082f600480360381019062000829919062002968565b620018ce565b005b3480156200083e57600080fd5b506200084962001c31565b60405162000858919062003109565b60405180910390f35b3480156200086e57600080fd5b506200088d600480360381019062000887919062002864565b62001c37565b005b3480156200089c57600080fd5b50620008bb6004803603810190620008b5919062002968565b62001cc2565b005b348015620008ca57600080fd5b50620008e96004803603810190620008e3919062002864565b62001cd6565b604051620008f8919062003109565b60405180910390f35b606060038054620009129062003356565b80601f0160208091040260200160405190810160405280929190818152602001828054620009409062003356565b8015620009915780601f10620009655761010080835404028352916020019162000991565b820191906000526020600020905b8154815290600101906020018083116200097357829003601f168201915b5050505050905090565b600080620009a862001cea565b9050620009b781858562001cf2565b600191505092915050565b6000600254905090565b600f8181548110620009dd57600080fd5b906000526020600020016000915054906101000a900473ffffffffffffffffffffffffffffffffffffffff1681565b60096020528060005260406000206000915054906101000a900473ffffffffffffffffffffffffffffffffffffffff1681565b60008062000a4c62001cea565b905062000a5b85828562001ec5565b62000a6885858562001f59565b60019150509392505050565b6000811162000aba576040517f08c379a000000000000000000000000000000000000000000000000000000000815260040162000ab19062002f71565b60405180910390fd5b62000ac53362001cd6565b81111562000b0a576040517f08c379a000000000000000000000000000000000000000000000000000000000815260040162000b019062003081565b60405180910390fd5b62000b1733308362001f59565b3373ffffffffffffffffffffffffffffffffffffffff166108fc62000b3c8362000c43565b9081150290604051600060405180830381858888f1935050505015801562000b68573d6000803e3d6000fd5b5050565b60006012905090565b60008062000b8262001cea565b905062000ba981858562000b97858962001847565b62000ba3919062003198565b62001cf2565b600191505092915050565b600660009054906101000a900473ffffffffffffffffffffffffffffffffffffffff1681565b6000600960008373ffffffffffffffffffffffffffffffffffffffff1673ffffffffffffffffffffffffffffffffffffffff16815260200190815260200160002060009054906101000a900473ffffffffffffffffffffffffffffffffffffffff169050919050565b60006008548262000c5591906200322d565b9050919050565b60008060008373ffffffffffffffffffffffffffffffffffffffff1673ffffffffffffffffffffffffffffffffffffffff168152602001908152602001600020549050919050565b62000cae620021e0565b62000cba600062002265565b565b62000cc6620021e0565b6000600e8054905090506000811162000d16576040517f08c379a000000000000000000000000000000000000000000000000000000000815260040162000d0d9062002fb5565b60405180910390fd5b6000814260405160200162000d2c919062002d7b565b6040516020818303038152906040528051906020012060001c62000d5191906200340c565b90506000600e828154811062000d90577f4e487b7100000000000000000000000000000000000000000000000000000000600052603260045260246000fd5b90600052602060002001549050600c600082815260200190815260200160002060009054906101000a900473ffffffffffffffffffffffffffffffffffffffff16600760006101000a81548173ffffffffffffffffffffffffffffffffffffffff021916908373ffffffffffffffffffffffffffffffffffffffff160217905550600760009054906101000a900473ffffffffffffffffffffffffffffffffffffffff1673ffffffffffffffffffffffffffffffffffffffff166108fc6064605f4762000e5e91906200322d565b62000e6a9190620031f5565b9081150290604051600060405180830381858888f1935050505015801562000e96573d6000803e3d6000fd5b5062000ea1620011de565b73ffffffffffffffffffffffffffffffffffffffff166108fc606460054762000ecb91906200322d565b62000ed79190620031f5565b9081150290604051600060405180830381858888f1935050505015801562000f03573d6000803e3d6000fd5b5060005b600f80549050811015620010c4576000600f828154811062000f52577f4e487b7100000000000000000000000000000000000000000000000000000000600052603260045260246000fd5b9060005260206000200160009054906101000a900473ffffffffffffffffffffffffffffffffffffffff1690506000600b60008373ffffffffffffffffffffffffffffffffffffffff1673ffffffffffffffffffffffffffffffffffffffff168152602001908152602001600020905060005b8180549050811015620010ab578181815481106200100c577f4e487b7100000000000000000000000000000000000000000000000000000000600052603260045260246000fd5b906000526020600020906002020160010160009054906101000a900460ff16620010955760018282815481106200106c577f4e487b7100000000000000000000000000000000000000000000000000000000600052603260045260246000fd5b906000526020600020906002020160010160006101000a81548160ff0219169083151502179055505b8080620010a2906200338c565b91505062000fc5565b5050508080620010bb906200338c565b91505062000f07565b50600067ffffffffffffffff81111562001107577f4e487b7100000000000000000000000000000000000000000000000000000000600052604160045260246000fd5b604051908082528060200260200182016040528015620011365781602001602082028036833780820191505090505b50600f90805190602001906200114e92919062002728565b50600067ffffffffffffffff81111562001191577f4e487b7100000000000000000000000000000000000000000000000000000000600052604160045260246000fd5b604051908082528060200260200182016040528015620011c05781602001602082028036833780820191505090505b50600e9080519060200190620011d8929190620027b7565b50505050565b6000600560009054906101000a900473ffffffffffffffffffffffffffffffffffffffff16905090565b600760009054906101000a900473ffffffffffffffffffffffffffffffffffffffff1681565b60606000600b60008473ffffffffffffffffffffffffffffffffffffffff1673ffffffffffffffffffffffffffffffffffffffff168152602001908152602001600020805480602002602001604051908101604052809291908181526020016000905b82821015620012ea5783829060005260206000209060020201604051806040016040529081600082015481526020016001820160009054906101000a900460ff1615151515815250508152602001906001019062001291565b5050505090506000805b8251811015620013705782818151811062001338577f4e487b7100000000000000000000000000000000000000000000000000000000600052603260045260246000fd5b6020026020010151602001516200135a57818062001356906200338c565b9250505b808062001367906200338c565b915050620012f4565b5060008167ffffffffffffffff811115620013b4577f4e487b7100000000000000000000000000000000000000000000000000000000600052604160045260246000fd5b604051908082528060200260200182016040528015620013e35781602001602082028036833780820191505090505b5090506000805b8451811015620014f2578481815181106200142e577f4e487b7100000000000000000000000000000000000000000000000000000000600052603260045260246000fd5b602002602001015160200151620014dc5784818151811062001479577f4e487b7100000000000000000000000000000000000000000000000000000000600052603260045260246000fd5b602002602001015160000151838381518110620014bf577f4e487b7100000000000000000000000000000000000000000000000000000000600052603260045260246000fd5b6020026020010181815250508180620014d8906200338c565b9250505b8080620014e9906200338c565b915050620013ea565b5081945050505050919050565b60006200150c3062000c5c565b905090565b606060048054620015229062003356565b80601f0160208091040260200160405190810160405280929190818152602001828054620015509062003356565b8015620015a15780601f106200157557610100808354040283529160200191620015a1565b820191906000526020600020905b8154815290600101906020018083116200158357829003601f168201915b5050505050905090565b620015b5620021e0565b620015c130826200232b565b50565b600080620015d162001cea565b90506000620015e1828662001847565b90508381101562001629576040517f08c379a00000000000000000000000000000000000000000000000000000000081526004016200162090620030a3565b60405180910390fd5b62001638828686840362001cf2565b60019250505092915050565b6000806200165162001cea565b90506200166081858562001f59565b600191505092915050565b6000600854905090565b600047905090565b62001687620021e0565b8060088190555050565b600073ffffffffffffffffffffffffffffffffffffffff16600960003373ffffffffffffffffffffffffffffffffffffffff1673ffffffffffffffffffffffffffffffffffffffff16815260200190815260200160002060009054906101000a900473ffffffffffffffffffffffffffffffffffffffff1673ffffffffffffffffffffffffffffffffffffffff1614156200173157620017306200248d565b5b60006200173e8262000c43565b90508034101562001786576040517f08c379a00000000000000000000000000000000000000000000000000000000081526004016200177d906200305f565b60405180910390fd5b600062001792620014ff565b905080831115620017da576040517f08c379a0000000000000000000000000000000000000000000000000000000008152600401620017d19062002fd7565b60405180910390fd5b60008234620017ea91906200328e565b90503373ffffffffffffffffffffffffffffffffffffffff166108fc829081150290604051600060405180830381858888f1935050505015801562001833573d6000803e3d6000fd5b506200184130338662001f59565b50505050565b6000600160008473ffffffffffffffffffffffffffffffffffffffff1673ffffffffffffffffffffffffffffffffffffffff16815260200190815260200160002060008373ffffffffffffffffffffffffffffffffffffffff1673ffffffffffffffffffffffffffffffffffffffff16815260200190815260200160002054905092915050565b6000600a5482620018e091906200322d565b9050620018ed3362001cd6565b81111562001932576040517f08c379a0000000000000000000000000000000000000000000000000000000008152600401620019299062002f4f565b60405180910390fd5b6200193f33308362001f59565b60005b8281101562001bb85760006127104233600d54604051602001620019699392919062002d98565b6040516020818303038152906040528051906020012060001c6200198e91906200340c565b9050600d6000815480929190620019a5906200338c565b9190505550600b60003373ffffffffffffffffffffffffffffffffffffffff1673ffffffffffffffffffffffffffffffffffffffff16815260200190815260200160002060405180604001604052808381526020016000151581525090806001815401808255809150506001900390600052602060002090600202016000909190919091506000820151816000015560208201518160010160006101000a81548160ff0219169083151502179055505050600e81908060018154018082558091505060019003906000526020600020016000909190919091505533600c600083815260200190815260200160002060006101000a81548173ffffffffffffffffffffffffffffffffffffffff021916908373ffffffffffffffffffffffffffffffffffffffff160217905550600960003373ffffffffffffffffffffffffffffffffffffffff1673ffffffffffffffffffffffffffffffffffffffff16815260200190815260200160002060009054906101000a900473ffffffffffffffffffffffffffffffffffffffff1673ffffffffffffffffffffffffffffffffffffffff1663120e852333836040518363ffffffff1660e01b815260040162001b6d92919062002e35565b600060405180830381600087803b15801562001b8857600080fd5b505af115801562001b9d573d6000803e3d6000fd5b5050505050808062001baf906200338c565b91505062001942565b5062001bc43362002642565b62001c2d57600f339080600181540180825580915050600190039060005260206000200160009091909190916101000a81548173ffffffffffffffffffffffffffffffffffffffff021916908373ffffffffffffffffffffffffffffffffffffffff1602179055505b5050565b600a5481565b62001c41620021e0565b600073ffffffffffffffffffffffffffffffffffffffff168173ffffffffffffffffffffffffffffffffffffffff16141562001cb4576040517f08c379a000000000000000000000000000000000000000000000000000000000815260040162001cab9062002ee9565b60405180910390fd5b62001cbf8162002265565b50565b62001ccc620021e0565b80600a8190555050565b600062001ce38262000c5c565b9050919050565b600033905090565b600073ffffffffffffffffffffffffffffffffffffffff168373ffffffffffffffffffffffffffffffffffffffff16141562001d65576040517f08c379a000000000000000000000000000000000000000000000000000000000815260040162001d5c906200303d565b60405180910390fd5b600073ffffffffffffffffffffffffffffffffffffffff168273ffffffffffffffffffffffffffffffffffffffff16141562001dd8576040517f08c379a000000000000000000000000000000000000000000000000000000000815260040162001dcf9062002f0b565b60405180910390fd5b80600160008573ffffffffffffffffffffffffffffffffffffffff1673ffffffffffffffffffffffffffffffffffffffff16815260200190815260200160002060008473ffffffffffffffffffffffffffffffffffffffff1673ffffffffffffffffffffffffffffffffffffffff168152602001908152602001600020819055508173ffffffffffffffffffffffffffffffffffffffff168373ffffffffffffffffffffffffffffffffffffffff167f8c5be1e5ebec7d5bd14f71427d1e84f3dd0314c0f7b2291e5b200ac8c7c3b9258360405162001eb8919062003109565b60405180910390a3505050565b600062001ed3848462001847565b90507fffffffffffffffffffffffffffffffffffffffffffffffffffffffffffffffff811462001f53578181101562001f43576040517f08c379a000000000000000000000000000000000000000000000000000000000815260040162001f3a9062002f2d565b60405180910390fd5b62001f52848484840362001cf2565b5b50505050565b600073ffffffffffffffffffffffffffffffffffffffff168373ffffffffffffffffffffffffffffffffffffffff16141562001fcc576040517f08c379a000000000000000000000000000000000000000000000000000000000815260040162001fc3906200301b565b60405180910390fd5b600073ffffffffffffffffffffffffffffffffffffffff168273ffffffffffffffffffffffffffffffffffffffff1614156200203f576040517f08c379a0000000000000000000000000000000000000000000000000000000008152600401620020369062002ec7565b60405180910390fd5b6200204c8383836200271e565b60008060008573ffffffffffffffffffffffffffffffffffffffff1673ffffffffffffffffffffffffffffffffffffffff16815260200190815260200160002054905081811015620020d5576040517f08c379a0000000000000000000000000000000000000000000000000000000008152600401620020cc9062002f93565b60405180910390fd5b8181036000808673ffffffffffffffffffffffffffffffffffffffff1673ffffffffffffffffffffffffffffffffffffffff16815260200190815260200160002081905550816000808573ffffffffffffffffffffffffffffffffffffffff1673ffffffffffffffffffffffffffffffffffffffff168152602001908152602001600020600082825401925050819055508273ffffffffffffffffffffffffffffffffffffffff168473ffffffffffffffffffffffffffffffffffffffff167fddf252ad1be2c89b69c2b068fc378daa952ba7f163c4a11628f55a4df523b3ef84604051620021c5919062003109565b60405180910390a3620021da84848462002723565b50505050565b620021ea62001cea565b73ffffffffffffffffffffffffffffffffffffffff166200220a620011de565b73ffffffffffffffffffffffffffffffffffffffff161462002263576040517f08c379a00000000000000000000000000000000000000000000000000000000081526004016200225a9062002ff9565b60405180910390fd5b565b6000600560009054906101000a900473ffffffffffffffffffffffffffffffffffffffff16905081600560006101000a81548173ffffffffffffffffffffffffffffffffffffffff021916908373ffffffffffffffffffffffffffffffffffffffff1602179055508173ffffffffffffffffffffffffffffffffffffffff168173ffffffffffffffffffffffffffffffffffffffff167f8be0079c531659141344cd1fd0a4f28419497f9722a3daafe3b4186f6b6457e060405160405180910390a35050565b600073ffffffffffffffffffffffffffffffffffffffff168273ffffffffffffffffffffffffffffffffffffffff1614156200239e576040517f08c379a00000000000000000000000000000000000000000000000000000000081526004016200239590620030e7565b60405180910390fd5b620023ac600083836200271e565b8060026000828254620023c0919062003198565b92505081905550806000808473ffffffffffffffffffffffffffffffffffffffff1673ffffffffffffffffffffffffffffffffffffffff168152602001908152602001600020600082825401925050819055508173ffffffffffffffffffffffffffffffffffffffff16600073ffffffffffffffffffffffffffffffffffffffff167fddf252ad1be2c89b69c2b068fc378daa952ba7f163c4a11628f55a4df523b3ef8360405162002473919062003109565b60405180910390a3620024896000838362002723565b5050565b600073ffffffffffffffffffffffffffffffffffffffff16600960003373ffffffffffffffffffffffffffffffffffffffff1673ffffffffffffffffffffffffffffffffffffffff16815260200190815260200160002060009054906101000a900473ffffffffffffffffffffffffffffffffffffffff1673ffffffffffffffffffffffffffffffffffffffff16146200255e576040517f08c379a00000000000000000000000000000000000000000000000000000000081526004016200255590620030c5565b60405180910390fd5b60003330600660009054906101000a900473ffffffffffffffffffffffffffffffffffffffff16604051620025939062002809565b620025a19392919062002df8565b604051809103906000f080158015620025be573d6000803e3d6000fd5b50905080600960003373ffffffffffffffffffffffffffffffffffffffff1673ffffffffffffffffffffffffffffffffffffffff16815260200190815260200160002060006101000a81548173ffffffffffffffffffffffffffffffffffffffff021916908373ffffffffffffffffffffffffffffffffffffffff16021790555050565b600080600090505b600f8054905081101562002713578273ffffffffffffffffffffffffffffffffffffffff16600f8281548110620026aa577f4e487b7100000000000000000000000000000000000000000000000000000000600052603260045260246000fd5b9060005260206000200160009054906101000a900473ffffffffffffffffffffffffffffffffffffffff1673ffffffffffffffffffffffffffffffffffffffff161415620026fd57600191505062002719565b80806200270a906200338c565b9150506200264a565b50600090505b919050565b505050565b505050565b828054828255906000526020600020908101928215620027a4579160200282015b82811115620027a35782518260006101000a81548173ffffffffffffffffffffffffffffffffffffffff021916908373ffffffffffffffffffffffffffffffffffffffff1602179055509160200191906001019062002749565b5b509050620027b3919062002817565b5090565b828054828255906000526020600020908101928215620027f6579160200282015b82811115620027f5578251825591602001919060010190620027d8565b5b50905062002805919062002817565b5090565b610703806200395983390190565b5b808211156200283257600081600090555060010162002818565b5090565b600081359050620028478162003924565b92915050565b6000813590506200285e816200393e565b92915050565b6000602082840312156200287757600080fd5b6000620028878482850162002836565b91505092915050565b60008060408385031215620028a457600080fd5b6000620028b48582860162002836565b9250506020620028c78582860162002836565b9150509250929050565b600080600060608486031215620028e757600080fd5b6000620028f78682870162002836565b93505060206200290a8682870162002836565b92505060406200291d868287016200284d565b9150509250925092565b600080604083850312156200293b57600080fd5b60006200294b8582860162002836565b92505060206200295e858286016200284d565b9150509250929050565b6000602082840312156200297b57600080fd5b60006200298b848285016200284d565b91505092915050565b6000620029a2838362002d2d565b60208301905092915050565b620029b981620032c9565b82525050565b620029d4620029ce82620032c9565b620033da565b82525050565b6000620029e78262003153565b620029f3818562003176565b935062002a008362003143565b8060005b8381101562002a3757815162002a1b888262002994565b975062002a288362003169565b92505060018101905062002a04565b5085935050505092915050565b62002a4f81620032dd565b82525050565b600062002a62826200315e565b62002a6e818562003187565b935062002a8081856020860162003320565b62002a8b81620034d1565b840191505092915050565b600062002aa560238362003187565b915062002ab282620034ef565b604082019050919050565b600062002acc60268362003187565b915062002ad9826200353e565b604082019050919050565b600062002af360228362003187565b915062002b00826200358d565b604082019050919050565b600062002b1a601d8362003187565b915062002b2782620035dc565b602082019050919050565b600062002b41601c8362003187565b915062002b4e8262003605565b602082019050919050565b600062002b6860308362003187565b915062002b75826200362e565b604082019050919050565b600062002b8f60268362003187565b915062002b9c826200367d565b604082019050919050565b600062002bb660188362003187565b915062002bc382620036cc565b602082019050919050565b600062002bdd60208362003187565b915062002bea82620036f5565b602082019050919050565b600062002c0460208362003187565b915062002c11826200371e565b602082019050919050565b600062002c2b60258362003187565b915062002c388262003747565b604082019050919050565b600062002c5260248362003187565b915062002c5f8262003796565b604082019050919050565b600062002c7960298362003187565b915062002c8682620037e5565b604082019050919050565b600062002ca060288362003187565b915062002cad8262003834565b604082019050919050565b600062002cc760258362003187565b915062002cd48262003883565b604082019050919050565b600062002cee60138362003187565b915062002cfb82620038d2565b602082019050919050565b600062002d15601f8362003187565b915062002d2282620038fb565b602082019050919050565b62002d388162003309565b82525050565b62002d498162003309565b82525050565b62002d6462002d5e8262003309565b62003402565b82525050565b62002d758162003313565b82525050565b600062002d89828462002d4f565b60208201915081905092915050565b600062002da6828662002d4f565b60208201915062002db88285620029bf565b60148201915062002dca828462002d4f565b602082019150819050949350505050565b600060208201905062002df26000830184620029ae565b92915050565b600060608201905062002e0f6000830186620029ae565b62002e1e6020830185620029ae565b62002e2d6040830184620029ae565b949350505050565b600060408201905062002e4c6000830185620029ae565b62002e5b602083018462002d3e565b9392505050565b6000602082019050818103600083015262002e7e8184620029da565b905092915050565b600060208201905062002e9d600083018462002a44565b92915050565b6000602082019050818103600083015262002ebf818462002a55565b905092915050565b6000602082019050818103600083015262002ee28162002a96565b9050919050565b6000602082019050818103600083015262002f048162002abd565b9050919050565b6000602082019050818103600083015262002f268162002ae4565b9050919050565b6000602082019050818103600083015262002f488162002b0b565b9050919050565b6000602082019050818103600083015262002f6a8162002b32565b9050919050565b6000602082019050818103600083015262002f8c8162002b59565b9050919050565b6000602082019050818103600083015262002fae8162002b80565b9050919050565b6000602082019050818103600083015262002fd08162002ba7565b9050919050565b6000602082019050818103600083015262002ff28162002bce565b9050919050565b60006020820190508181036000830152620030148162002bf5565b9050919050565b60006020820190508181036000830152620030368162002c1c565b9050919050565b60006020820190508181036000830152620030588162002c43565b9050919050565b600060208201905081810360008301526200307a8162002c6a565b9050919050565b600060208201905081810360008301526200309c8162002c91565b9050919050565b60006020820190508181036000830152620030be8162002cb8565b9050919050565b60006020820190508181036000830152620030e08162002cdf565b9050919050565b60006020820190508181036000830152620031028162002d06565b9050919050565b600060208201905062003120600083018462002d3e565b92915050565b60006020820190506200313d600083018462002d6a565b92915050565b6000819050602082019050919050565b600081519050919050565b600081519050919050565b6000602082019050919050565b600082825260208201905092915050565b600082825260208201905092915050565b6000620031a58262003309565b9150620031b28362003309565b9250827fffffffffffffffffffffffffffffffffffffffffffffffffffffffffffffffff03821115620031ea57620031e962003444565b5b828201905092915050565b6000620032028262003309565b91506200320f8362003309565b92508262003222576200322162003473565b5b828204905092915050565b60006200323a8262003309565b9150620032478362003309565b9250817fffffffffffffffffffffffffffffffffffffffffffffffffffffffffffffffff048311821515161562003283576200328262003444565b5b828202905092915050565b60006200329b8262003309565b9150620032a88362003309565b925082821015620032be57620032bd62003444565b5b828203905092915050565b6000620032d682620032e9565b9050919050565b60008115159050919050565b600073ffffffffffffffffffffffffffffffffffffffff82169050919050565b6000819050919050565b600060ff82169050919050565b60005b838110156200334057808201518184015260208101905062003323565b8381111562003350576000848401525b50505050565b600060028204905060018216806200336f57607f821691505b60208210811415620033865762003385620034a2565b5b50919050565b6000620033998262003309565b91507fffffffffffffffffffffffffffffffffffffffffffffffffffffffffffffffff821415620033cf57620033ce62003444565b5b600182019050919050565b6000620033e782620033ee565b9050919050565b6000620033fb82620034e2565b9050919050565b6000819050919050565b6000620034198262003309565b9150620034268362003309565b92508262003439576200343862003473565b5b828206905092915050565b7f4e487b7100000000000000000000000000000000000000000000000000000000600052601160045260246000fd5b7f4e487b7100000000000000000000000000000000000000000000000000000000600052601260045260246000fd5b7f4e487b7100000000000000000000000000000000000000000000000000000000600052602260045260246000fd5b6000601f19601f8301169050919050565b60008160601b9050919050565b7f45524332303a207472616e7366657220746f20746865207a65726f206164647260008201527f6573730000000000000000000000000000000000000000000000000000000000602082015250565b7f4f776e61626c653a206e6577206f776e657220697320746865207a65726f206160008201527f6464726573730000000000000000000000000000000000000000000000000000602082015250565b7f45524332303a20617070726f766520746f20746865207a65726f20616464726560008201527f7373000000000000000000000000000000000000000000000000000000000000602082015250565b7f45524332303a20696e73756666696369656e7420616c6c6f77616e6365000000600082015250565b7f4e6f207469656e657320746f6b656e7320737566696369656e74657300000000600082015250565b7f4e6563657369746173206465766f6c76657220756e206e756d65726f2064652060008201527f746f6b656e73206d61796f722061203000000000000000000000000000000000602082015250565b7f45524332303a207472616e7366657220616d6f756e742065786365656473206260008201527f616c616e63650000000000000000000000000000000000000000000000000000602082015250565b7f4e6f2068617920626f6c65746f7320636f6d707261646f730000000000000000600082015250565b7f436f6d70726120756e206e756d65726f206d656e6f7220646520746f6b656e73600082015250565b7f4f776e61626c653a2063616c6c6572206973206e6f7420746865206f776e6572600082015250565b7f45524332303a207472616e736665722066726f6d20746865207a65726f20616460008201527f6472657373000000000000000000000000000000000000000000000000000000602082015250565b7f45524332303a20617070726f76652066726f6d20746865207a65726f2061646460008201527f7265737300000000000000000000000000000000000000000000000000000000602082015250565b7f436f6d707261206d656e6f7320746f6b656e73206f207061676120636f6e206d60008201527f6173206574686572730000000000000000000000000000000000000000000000602082015250565b7f4e6f207469656e6573206c6f7320746f6b656e7320717565206465736561732060008201527f6465766f6c766572000000000000000000000000000000000000000000000000602082015250565b7f45524332303a2064656372656173656420616c6c6f77616e63652062656c6f7760008201527f207a65726f000000000000000000000000000000000000000000000000000000602082015250565b7f5961206573746173205265676973747261646f00000000000000000000000000600082015250565b7f45524332303a206d696e7420746f20746865207a65726f206164647265737300600082015250565b6200392f81620032c9565b81146200393b57600080fd5b50565b620039498162003309565b81146200395557600080fd5b5056fe608060405234801561001057600080fd5b50604051610703380380610703833981810160405281019061003291906101e8565b60405180608001604052808473ffffffffffffffffffffffffffffffffffffffff1681526020018373ffffffffffffffffffffffffffffffffffffffff1681526020018273ffffffffffffffffffffffffffffffffffffffff1681526020013073ffffffffffffffffffffffffffffffffffffffff168152506000808201518160000160006101000a81548173ffffffffffffffffffffffffffffffffffffffff021916908373ffffffffffffffffffffffffffffffffffffffff16021790555060208201518160010160006101000a81548173ffffffffffffffffffffffffffffffffffffffff021916908373ffffffffffffffffffffffffffffffffffffffff16021790555060408201518160020160006101000a81548173ffffffffffffffffffffffffffffffffffffffff021916908373ffffffffffffffffffffffffffffffffffffffff16021790555060608201518160030160006101000a81548173ffffffffffffffffffffffffffffffffffffffff021916908373ffffffffffffffffffffffffffffffffffffffff160217905550905050505050610280565b6000815190506101e281610269565b92915050565b6000806000606084860312156101fd57600080fd5b600061020b868287016101d3565b935050602061021c868287016101d3565b925050604061022d868287016101d3565b9150509250925092565b600061024282610249565b9050919050565b600073ffffffffffffffffffffffffffffffffffffffff82169050919050565b61027281610237565b811461027d57600080fd5b50565b6104748061028f6000396000f3fe608060405234801561001057600080fd5b50600436106100365760003560e01c8063120e85231461003b5780633c4f81cd14610057575b600080fd5b61005560048036038101906100509190610269565b610078565b005b61005f6101a1565b60405161006f94939291906102e6565b60405180910390f35b600060010160009054906101000a900473ffffffffffffffffffffffffffffffffffffffff1673ffffffffffffffffffffffffffffffffffffffff163373ffffffffffffffffffffffffffffffffffffffff161461010b576040517f08c379a000000000000000000000000000000000000000000000000000000000815260040161010290610354565b60405180910390fd5b600060020160009054906101000a900473ffffffffffffffffffffffffffffffffffffffff1673ffffffffffffffffffffffffffffffffffffffff1663a144819483836040518363ffffffff1660e01b815260040161016b92919061032b565b600060405180830381600087803b15801561018557600080fd5b505af1158015610199573d6000803e3d6000fd5b505050505050565b60008060000160009054906101000a900473ffffffffffffffffffffffffffffffffffffffff16908060010160009054906101000a900473ffffffffffffffffffffffffffffffffffffffff16908060020160009054906101000a900473ffffffffffffffffffffffffffffffffffffffff16908060030160009054906101000a900473ffffffffffffffffffffffffffffffffffffffff16905084565b60008135905061024e81610410565b92915050565b60008135905061026381610427565b92915050565b6000806040838503121561027c57600080fd5b600061028a8582860161023f565b925050602061029b85828601610254565b9150509250929050565b6102ae81610385565b82525050565b60006102c1602d83610374565b91506102cc826103c1565b604082019050919050565b6102e0816103b7565b82525050565b60006080820190506102fb60008301876102a5565b61030860208301866102a5565b61031560408301856102a5565b61032260608301846102a5565b95945050505050565b600060408201905061034060008301856102a5565b61034d60208301846102d7565b9392505050565b6000602082019050818103600083015261036d816102b4565b9050919050565b600082825260208201905092915050565b600061039082610397565b9050919050565b600073ffffffffffffffffffffffffffffffffffffffff82169050919050565b6000819050919050565b7f4e6f207469656e6573207065726d69736f73207061726120656a65637574617260008201527f20657374612066756e63696f6e00000000000000000000000000000000000000602082015250565b61041981610385565b811461042457600080fd5b50565b610430816103b7565b811461043b57600080fd5b5056fea26469706673582212206d859d2dbfda7930f2e8312fdbc1172305b12d2f93bcf52b108421e7e6d92c7264736f6c63430008040033a26469706673582212205b50a30852096e22932e078a9b9050c1e27ee0c550f945601bbdea29c0846d1764736f6c6343000804003360806040523480156200001157600080fd5b506040518060400160405280600781526020017f4c6f7465726961000000000000000000000000000000000000000000000000008152506040518060400160405280600381526020017f5354450000000000000000000000000000000000000000000000000000000000815250816000908051906020019062000096929190620000f9565b508060019080519060200190620000af929190620000f9565b50505033600660006101000a81548173ffffffffffffffffffffffffffffffffffffffff021916908373ffffffffffffffffffffffffffffffffffffffff1602179055506200020e565b8280546200010790620001a9565b90600052602060002090601f0160209004810192826200012b576000855562000177565b82601f106200014657805160ff191683800117855562000177565b8280016001018555821562000177579182015b828111156200017657825182559160200191906001019062000159565b5b5090506200018691906200018a565b5090565b5b80821115620001a55760008160009055506001016200018b565b5090565b60006002820490506001821680620001c257607f821691505b60208210811415620001d957620001d8620001df565b5b50919050565b7f4e487b7100000000000000000000000000000000000000000000000000000000600052602260045260246000fd5b6127f1806200021e6000396000f3fe608060405234801561001057600080fd5b50600436106100f55760003560e01c80636352211e11610097578063a22cb46511610066578063a22cb46514610284578063b88d4fde146102a0578063c87b56dd146102bc578063e985e9c5146102ec576100f5565b80636352211e146101ea57806370a082311461021a57806395d89b411461024a578063a144819414610268576100f5565b8063095ea7b3116100d3578063095ea7b31461017857806323b872dd1461019457806342842e0e146101b05780635aa0c73d146101cc576100f5565b806301ffc9a7146100fa57806306fdde031461012a578063081812fc14610148575b600080fd5b610114600480360381019061010f9190611cd0565b61031c565b604051610121919061204a565b60405180910390f35b6101326103fe565b60405161013f9190612065565b60405180910390f35b610162600480360381019061015d9190611d22565b610490565b60405161016f9190611fe3565b60405180910390f35b610192600480360381019061018d9190611c94565b6104d6565b005b6101ae60048036038101906101a99190611b8e565b6105ee565b005b6101ca60048036038101906101c59190611b8e565b61064e565b005b6101d461066e565b6040516101e19190611fe3565b60405180910390f35b61020460048036038101906101ff9190611d22565b610694565b6040516102119190611fe3565b60405180910390f35b610234600480360381019061022f9190611b00565b61071b565b6040516102419190612207565b60405180910390f35b6102526107d3565b60405161025f9190612065565b60405180910390f35b610282600480360381019061027d9190611c94565b610865565b005b61029e60048036038101906102999190611c58565b61098b565b005b6102ba60048036038101906102b59190611bdd565b6109a1565b005b6102d660048036038101906102d19190611d22565b610a03565b6040516102e39190612065565b60405180910390f35b61030660048036038101906103019190611b52565b610a6b565b604051610313919061204a565b60405180910390f35b60007f80ac58cd000000000000000000000000000000000000000000000000000000007bffffffffffffffffffffffffffffffffffffffffffffffffffffffff1916827bffffffffffffffffffffffffffffffffffffffffffffffffffffffff191614806103e757507f5b5e139f000000000000000000000000000000000000000000000000000000007bffffffffffffffffffffffffffffffffffffffffffffffffffffffff1916827bffffffffffffffffffffffffffffffffffffffffffffffffffffffff1916145b806103f757506103f682610aff565b5b9050919050565b60606000805461040d90612371565b80601f016020809104026020016040519081016040528092919081815260200182805461043990612371565b80156104865780601f1061045b57610100808354040283529160200191610486565b820191906000526020600020905b81548152906001019060200180831161046957829003601f168201915b5050505050905090565b600061049b82610b69565b6004600083815260200190815260200160002060009054906101000a900473ffffffffffffffffffffffffffffffffffffffff169050919050565b60006104e182610694565b90508073ffffffffffffffffffffffffffffffffffffffff168373ffffffffffffffffffffffffffffffffffffffff161415610552576040517f08c379a0000000000000000000000000000000000000000000000000000000008152600401610549906121c7565b60405180910390fd5b8073ffffffffffffffffffffffffffffffffffffffff16610571610bb4565b73ffffffffffffffffffffffffffffffffffffffff1614806105a0575061059f8161059a610bb4565b610a6b565b5b6105df576040517f08c379a00000000000000000000000000000000000000000000000000000000081526004016105d6906121e7565b60405180910390fd5b6105e98383610bbc565b505050565b6105ff6105f9610bb4565b82610c75565b61063e576040517f08c379a000000000000000000000000000000000000000000000000000000000815260040161063590612087565b60405180910390fd5b610649838383610d0a565b505050565b610669838383604051806020016040528060008152506109a1565b505050565b600660009054906101000a900473ffffffffffffffffffffffffffffffffffffffff1681565b6000806106a083611004565b9050600073ffffffffffffffffffffffffffffffffffffffff168173ffffffffffffffffffffffffffffffffffffffff161415610712576040517f08c379a0000000000000000000000000000000000000000000000000000000008152600401610709906121a7565b60405180910390fd5b80915050919050565b60008073ffffffffffffffffffffffffffffffffffffffff168273ffffffffffffffffffffffffffffffffffffffff16141561078c576040517f08c379a000000000000000000000000000000000000000000000000000000000815260040161078390612147565b60405180910390fd5b600360008373ffffffffffffffffffffffffffffffffffffffff1673ffffffffffffffffffffffffffffffffffffffff168152602001908152602001600020549050919050565b6060600180546107e290612371565b80601f016020809104026020016040519081016040528092919081815260200182805461080e90612371565b801561085b5780601f106108305761010080835404028352916020019161085b565b820191906000526020600020905b81548152906001019060200180831161083e57829003601f168201915b5050505050905090565b600660009054906101000a900473ffffffffffffffffffffffffffffffffffffffff1673ffffffffffffffffffffffffffffffffffffffff16635d0eaaaf836040518263ffffffff1660e01b81526004016108c09190611fe3565b60206040518083038186803b1580156108d857600080fd5b505afa1580156108ec573d6000803e3d6000fd5b505050506040513d601f19601f820116820180604052508101906109109190611b29565b73ffffffffffffffffffffffffffffffffffffffff163373ffffffffffffffffffffffffffffffffffffffff161461097d576040517f08c379a000000000000000000000000000000000000000000000000000000000815260040161097490612187565b60405180910390fd5b6109878282611041565b5050565b61099d610996610bb4565b838361105f565b5050565b6109b26109ac610bb4565b83610c75565b6109f1576040517f08c379a00000000000000000000000000000000000000000000000000000000081526004016109e890612087565b60405180910390fd5b6109fd848484846111cc565b50505050565b6060610a0e82610b69565b6000610a18611228565b90506000815111610a385760405180602001604052806000815250610a63565b80610a428461123f565b604051602001610a53929190611fbf565b6040516020818303038152906040525b915050919050565b6000600560008473ffffffffffffffffffffffffffffffffffffffff1673ffffffffffffffffffffffffffffffffffffffff16815260200190815260200160002060008373ffffffffffffffffffffffffffffffffffffffff1673ffffffffffffffffffffffffffffffffffffffff16815260200190815260200160002060009054906101000a900460ff16905092915050565b60007f01ffc9a7000000000000000000000000000000000000000000000000000000007bffffffffffffffffffffffffffffffffffffffffffffffffffffffff1916827bffffffffffffffffffffffffffffffffffffffffffffffffffffffff1916149050919050565b610b7281611363565b610bb1576040517f08c379a0000000000000000000000000000000000000000000000000000000008152600401610ba8906121a7565b60405180910390fd5b50565b600033905090565b816004600083815260200190815260200160002060006101000a81548173ffffffffffffffffffffffffffffffffffffffff021916908373ffffffffffffffffffffffffffffffffffffffff160217905550808273ffffffffffffffffffffffffffffffffffffffff16610c2f83610694565b73ffffffffffffffffffffffffffffffffffffffff167f8c5be1e5ebec7d5bd14f71427d1e84f3dd0314c0f7b2291e5b200ac8c7c3b92560405160405180910390a45050565b600080610c8183610694565b90508073ffffffffffffffffffffffffffffffffffffffff168473ffffffffffffffffffffffffffffffffffffffff161480610cc35750610cc28185610a6b565b5b80610d0157508373ffffffffffffffffffffffffffffffffffffffff16610ce984610490565b73ffffffffffffffffffffffffffffffffffffffff16145b91505092915050565b8273ffffffffffffffffffffffffffffffffffffffff16610d2a82610694565b73ffffffffffffffffffffffffffffffffffffffff1614610d80576040517f08c379a0000000000000000000000000000000000000000000000000000000008152600401610d77906120c7565b60405180910390fd5b600073ffffffffffffffffffffffffffffffffffffffff168273ffffffffffffffffffffffffffffffffffffffff161415610df0576040517f08c379a0000000000000000000000000000000000000000000000000000000008152600401610de790612107565b60405180910390fd5b610dfd83838360016113a4565b8273ffffffffffffffffffffffffffffffffffffffff16610e1d82610694565b73ffffffffffffffffffffffffffffffffffffffff1614610e73576040517f08c379a0000000000000000000000000000000000000000000000000000000008152600401610e6a906120c7565b60405180910390fd5b6004600082815260200190815260200160002060006101000a81549073ffffffffffffffffffffffffffffffffffffffff02191690556001600360008573ffffffffffffffffffffffffffffffffffffffff1673ffffffffffffffffffffffffffffffffffffffff168152602001908152602001600020600082825403925050819055506001600360008473ffffffffffffffffffffffffffffffffffffffff1673ffffffffffffffffffffffffffffffffffffffff16815260200190815260200160002060008282540192505081905550816002600083815260200190815260200160002060006101000a81548173ffffffffffffffffffffffffffffffffffffffff021916908373ffffffffffffffffffffffffffffffffffffffff160217905550808273ffffffffffffffffffffffffffffffffffffffff168473ffffffffffffffffffffffffffffffffffffffff167fddf252ad1be2c89b69c2b068fc378daa952ba7f163c4a11628f55a4df523b3ef60405160405180910390a4610fff83838360016113aa565b505050565b60006002600083815260200190815260200160002060009054906101000a900473ffffffffffffffffffffffffffffffffffffffff169050919050565b61105b8282604051806020016040528060008152506113b0565b5050565b8173ffffffffffffffffffffffffffffffffffffffff168373ffffffffffffffffffffffffffffffffffffffff1614156110ce576040517f08c379a00000000000000000000000000000000000000000000000000000000081526004016110c590612127565b60405180910390fd5b80600560008573ffffffffffffffffffffffffffffffffffffffff1673ffffffffffffffffffffffffffffffffffffffff16815260200190815260200160002060008473ffffffffffffffffffffffffffffffffffffffff1673ffffffffffffffffffffffffffffffffffffffff16815260200190815260200160002060006101000a81548160ff0219169083151502179055508173ffffffffffffffffffffffffffffffffffffffff168373ffffffffffffffffffffffffffffffffffffffff167f17307eab39ab6107e8899845ad3d59bd9653f200f220920489ca2b5937696c31836040516111bf919061204a565b60405180910390a3505050565b6111d7848484610d0a565b6111e38484848461140b565b611222576040517f08c379a0000000000000000000000000000000000000000000000000000000008152600401611219906120a7565b60405180910390fd5b50505050565b606060405180602001604052806000815250905090565b60606000600161124e846115a2565b01905060008167ffffffffffffffff811115611293577f4e487b7100000000000000000000000000000000000000000000000000000000600052604160045260246000fd5b6040519080825280601f01601f1916602001820160405280156112c55781602001600182028036833780820191505090505b509050600082602001820190505b600115611358578080600190039150507f3031323334353637383961626364656600000000000000000000000000000000600a86061a8153600a8581611342577f4e487b7100000000000000000000000000000000000000000000000000000000600052601260045260246000fd5b049450600085141561135357611358565b6112d3565b819350505050919050565b60008073ffffffffffffffffffffffffffffffffffffffff1661138583611004565b73ffffffffffffffffffffffffffffffffffffffff1614159050919050565b50505050565b50505050565b6113ba83836117d9565b6113c7600084848461140b565b611406576040517f08c379a00000000000000000000000000000000000000000000000000000000081526004016113fd906120a7565b60405180910390fd5b505050565b600061142c8473ffffffffffffffffffffffffffffffffffffffff166119f7565b15611595578373ffffffffffffffffffffffffffffffffffffffff1663150b7a02611455610bb4565b8786866040518563ffffffff1660e01b81526004016114779493929190611ffe565b602060405180830381600087803b15801561149157600080fd5b505af19250505080156114c257506040513d601f19601f820116820180604052508101906114bf9190611cf9565b60015b611545573d80600081146114f2576040519150601f19603f3d011682016040523d82523d6000602084013e6114f7565b606091505b5060008151141561153d576040517f08c379a0000000000000000000000000000000000000000000000000000000008152600401611534906120a7565b60405180910390fd5b805181602001fd5b63150b7a0260e01b7bffffffffffffffffffffffffffffffffffffffffffffffffffffffff1916817bffffffffffffffffffffffffffffffffffffffffffffffffffffffff19161491505061159a565b600190505b949350505050565b600080600090507a184f03e93ff9f4daa797ed6e38ed64bf6a1f0100000000000000008310611626577a184f03e93ff9f4daa797ed6e38ed64bf6a1f010000000000000000838161161c577f4e487b7100000000000000000000000000000000000000000000000000000000600052601260045260246000fd5b0492506040810190505b6d04ee2d6d415b85acef81000000008310611689576d04ee2d6d415b85acef8100000000838161167f577f4e487b7100000000000000000000000000000000000000000000000000000000600052601260045260246000fd5b0492506020810190505b662386f26fc1000083106116de57662386f26fc1000083816116d4577f4e487b7100000000000000000000000000000000000000000000000000000000600052601260045260246000fd5b0492506010810190505b6305f5e100831061172d576305f5e1008381611723577f4e487b7100000000000000000000000000000000000000000000000000000000600052601260045260246000fd5b0492506008810190505b612710831061177857612710838161176e577f4e487b7100000000000000000000000000000000000000000000000000000000600052601260045260246000fd5b0492506004810190505b606483106117c157606483816117b7577f4e487b7100000000000000000000000000000000000000000000000000000000600052601260045260246000fd5b0492506002810190505b600a83106117d0576001810190505b80915050919050565b600073ffffffffffffffffffffffffffffffffffffffff168273ffffffffffffffffffffffffffffffffffffffff161415611849576040517f08c379a000000000000000000000000000000000000000000000000000000000815260040161184090612167565b60405180910390fd5b61185281611363565b15611892576040517f08c379a0000000000000000000000000000000000000000000000000000000008152600401611889906120e7565b60405180910390fd5b6118a06000838360016113a4565b6118a981611363565b156118e9576040517f08c379a00000000000000000000000000000000000000000000000000000000081526004016118e0906120e7565b60405180910390fd5b6001600360008473ffffffffffffffffffffffffffffffffffffffff1673ffffffffffffffffffffffffffffffffffffffff16815260200190815260200160002060008282540192505081905550816002600083815260200190815260200160002060006101000a81548173ffffffffffffffffffffffffffffffffffffffff021916908373ffffffffffffffffffffffffffffffffffffffff160217905550808273ffffffffffffffffffffffffffffffffffffffff16600073ffffffffffffffffffffffffffffffffffffffff167fddf252ad1be2c89b69c2b068fc378daa952ba7f163c4a11628f55a4df523b3ef60405160405180910390a46119f36000838360016113aa565b5050565b6000808273ffffffffffffffffffffffffffffffffffffffff163b119050919050565b6000611a2d611a2884612247565b612222565b905082815260208101848484011115611a4557600080fd5b611a5084828561232f565b509392505050565b600081359050611a678161275f565b92915050565b600081519050611a7c8161275f565b92915050565b600081359050611a9181612776565b92915050565b600081359050611aa68161278d565b92915050565b600081519050611abb8161278d565b92915050565b600082601f830112611ad257600080fd5b8135611ae2848260208601611a1a565b91505092915050565b600081359050611afa816127a4565b92915050565b600060208284031215611b1257600080fd5b6000611b2084828501611a58565b91505092915050565b600060208284031215611b3b57600080fd5b6000611b4984828501611a6d565b91505092915050565b60008060408385031215611b6557600080fd5b6000611b7385828601611a58565b9250506020611b8485828601611a58565b9150509250929050565b600080600060608486031215611ba357600080fd5b6000611bb186828701611a58565b9350506020611bc286828701611a58565b9250506040611bd386828701611aeb565b9150509250925092565b60008060008060808587031215611bf357600080fd5b6000611c0187828801611a58565b9450506020611c1287828801611a58565b9350506040611c2387828801611aeb565b925050606085013567ffffffffffffffff811115611c4057600080fd5b611c4c87828801611ac1565b91505092959194509250565b60008060408385031215611c6b57600080fd5b6000611c7985828601611a58565b9250506020611c8a85828601611a82565b9150509250929050565b60008060408385031215611ca757600080fd5b6000611cb585828601611a58565b9250506020611cc685828601611aeb565b9150509250929050565b600060208284031215611ce257600080fd5b6000611cf084828501611a97565b91505092915050565b600060208284031215611d0b57600080fd5b6000611d1984828501611aac565b91505092915050565b600060208284031215611d3457600080fd5b6000611d4284828501611aeb565b91505092915050565b611d54816122bb565b82525050565b611d63816122cd565b82525050565b6000611d7482612278565b611d7e818561228e565b9350611d8e81856020860161233e565b611d9781612432565b840191505092915050565b6000611dad82612283565b611db7818561229f565b9350611dc781856020860161233e565b611dd081612432565b840191505092915050565b6000611de682612283565b611df081856122b0565b9350611e0081856020860161233e565b80840191505092915050565b6000611e19602d8361229f565b9150611e2482612443565b604082019050919050565b6000611e3c60328361229f565b9150611e4782612492565b604082019050919050565b6000611e5f60258361229f565b9150611e6a826124e1565b604082019050919050565b6000611e82601c8361229f565b9150611e8d82612530565b602082019050919050565b6000611ea560248361229f565b9150611eb082612559565b604082019050919050565b6000611ec860198361229f565b9150611ed3826125a8565b602082019050919050565b6000611eeb60298361229f565b9150611ef6826125d1565b604082019050919050565b6000611f0e60208361229f565b9150611f1982612620565b602082019050919050565b6000611f31602d8361229f565b9150611f3c82612649565b604082019050919050565b6000611f5460188361229f565b9150611f5f82612698565b602082019050919050565b6000611f7760218361229f565b9150611f82826126c1565b604082019050919050565b6000611f9a603d8361229f565b9150611fa582612710565b604082019050919050565b611fb981612325565b82525050565b6000611fcb8285611ddb565b9150611fd78284611ddb565b91508190509392505050565b6000602082019050611ff86000830184611d4b565b92915050565b60006080820190506120136000830187611d4b565b6120206020830186611d4b565b61202d6040830185611fb0565b818103606083015261203f8184611d69565b905095945050505050565b600060208201905061205f6000830184611d5a565b92915050565b6000602082019050818103600083015261207f8184611da2565b905092915050565b600060208201905081810360008301526120a081611e0c565b9050919050565b600060208201905081810360008301526120c081611e2f565b9050919050565b600060208201905081810360008301526120e081611e52565b9050919050565b6000602082019050818103600083015261210081611e75565b9050919050565b6000602082019050818103600083015261212081611e98565b9050919050565b6000602082019050818103600083015261214081611ebb565b9050919050565b6000602082019050818103600083015261216081611ede565b9050919050565b6000602082019050818103600083015261218081611f01565b9050919050565b600060208201905081810360008301526121a081611f24565b9050919050565b600060208201905081810360008301526121c081611f47565b9050919050565b600060208201905081810360008301526121e081611f6a565b9050919050565b6000602082019050818103600083015261220081611f8d565b9050919050565b600060208201905061221c6000830184611fb0565b92915050565b600061222c61223d565b905061223882826123a3565b919050565b6000604051905090565b600067ffffffffffffffff82111561226257612261612403565b5b61226b82612432565b9050602081019050919050565b600081519050919050565b600081519050919050565b600082825260208201905092915050565b600082825260208201905092915050565b600081905092915050565b60006122c682612305565b9050919050565b60008115159050919050565b60007fffffffff0000000000000000000000000000000000000000000000000000000082169050919050565b600073ffffffffffffffffffffffffffffffffffffffff82169050919050565b6000819050919050565b82818337600083830152505050565b60005b8381101561235c578082015181840152602081019050612341565b8381111561236b576000848401525b50505050565b6000600282049050600182168061238957607f821691505b6020821081141561239d5761239c6123d4565b5b50919050565b6123ac82612432565b810181811067ffffffffffffffff821117156123cb576123ca612403565b5b80604052505050565b7f4e487b7100000000000000000000000000000000000000000000000000000000600052602260045260246000fd5b7f4e487b7100000000000000000000000000000000000000000000000000000000600052604160045260246000fd5b6000601f19601f8301169050919050565b7f4552433732313a2063616c6c6572206973206e6f7420746f6b656e206f776e6560008201527f72206f7220617070726f76656400000000000000000000000000000000000000602082015250565b7f4552433732313a207472616e7366657220746f206e6f6e20455243373231526560008201527f63656976657220696d706c656d656e7465720000000000000000000000000000602082015250565b7f4552433732313a207472616e736665722066726f6d20696e636f72726563742060008201527f6f776e6572000000000000000000000000000000000000000000000000000000602082015250565b7f4552433732313a20746f6b656e20616c7265616479206d696e74656400000000600082015250565b7f4552433732313a207472616e7366657220746f20746865207a65726f2061646460008201527f7265737300000000000000000000000000000000000000000000000000000000602082015250565b7f4552433732313a20617070726f766520746f2063616c6c657200000000000000600082015250565b7f4552433732313a2061646472657373207a65726f206973206e6f74206120766160008201527f6c6964206f776e65720000000000000000000000000000000000000000000000602082015250565b7f4552433732313a206d696e7420746f20746865207a65726f2061646472657373600082015250565b7f4e6f207469656e6573207065726d69736f73207061726120656a65637574617260008201527f20657374612066756e63696f6e00000000000000000000000000000000000000602082015250565b7f4552433732313a20696e76616c696420746f6b656e2049440000000000000000600082015250565b7f4552433732313a20617070726f76616c20746f2063757272656e74206f776e6560008201527f7200000000000000000000000000000000000000000000000000000000000000602082015250565b7f4552433732313a20617070726f76652063616c6c6572206973206e6f7420746f60008201527f6b656e206f776e6572206f7220617070726f76656420666f7220616c6c000000602082015250565b612768816122bb565b811461277357600080fd5b50565b61277f816122cd565b811461278a57600080fd5b50565b612796816122d9565b81146127a157600080fd5b50565b6127ad81612325565b81146127b857600080fd5b5056fea26469706673582212200e977c63e239971ec02ec46bbcb1b95f180c923911c4247a28a49b382af72bf264736f6c63430008040033",
  "immutableReferences": {},
  "source": "// SPDX-License-Identifier: MIT\npragma solidity ^0.8.4;\n\nimport \"@openzeppelin/contracts/token/ERC20/ERC20.sol\";\nimport \"@openzeppelin/contracts/token/ERC721/ERC721.sol\";\nimport \"@openzeppelin/contracts/access/Ownable.sol\";\n\ncontract loteria is ERC20, Ownable {\n\n    // ============================================\n    // Gestion de los tokens\n    // ============================================\n\n    // Direccion del contrato NFT del proyecto\n    address public nft;\n\n    // Constructor \n    constructor() ERC20(\"ChernoFortune\", \"LGEM\"){\n        _mint(address(this), 100000);\n        nft = address(new mainERC721());\n    }\n\n    // Ganador del premio de la loteria\n    address public ganador;\n    uint private  priceToken = 1 ether;\n\n    // Registro del usuario\n    mapping(address => address) public usuario_contract;\n\n\n    // Funcin para modificar el precio del Token\n    function modifyPrice(uint _newPrice) public onlyOwner {\n        priceToken=_newPrice;\n    }\n    function verPrecio() public view returns(uint){\n        return priceToken;\n    }\n\n    // Precio de los tokens ERC-20\n    function precioTokens(uint256 _numTokens) public view returns (uint256){\n        return _numTokens * (priceToken);\n    }\n\n    // Visualizacion del balance de tokens ERC-20 de un usuario\n    function balanceTokens(address _account) public view returns (uint256){\n        return balanceOf(_account);\n    }\n\n    // Visualizacion del balance de tokens ERC-20 del Smart Contract\n    function balanceTokensSC() public view returns (uint256){\n        return balanceOf(address(this));\n    }\n\n    // Visualizacion del balance de ethers del Smart Contract\n    function balanceEthersSC() public view returns (uint256){\n        return address(this).balance;\n    }\n\n    // Generacion de nuevos Tokens ERC-20\n    function mint(uint256 _cantidad) public onlyOwner {\n        _mint(address(this), _cantidad);\n    }\n\n    // Registro de usuarios\n    function registrar() internal {\n        require(usuario_contract[msg.sender]==address(0),'Ya estas Registrado');\n        address addr_personal_contract = address(new boletosNFTs(msg.sender, address(this), nft));\n        usuario_contract[msg.sender] = addr_personal_contract; \n    }\n\n    // Informacion de un usuario\n    function usersInfo(address _account) public view returns (address){\n        return usuario_contract[_account];\n    }\n\n    // Compra de tokens ERC-20\n    function compraTokens(uint256 _numTokens) public payable {\n        // Registro del ususario\n        if(usuario_contract[msg.sender] == address(0)){\n            registrar();\n        }\n        // Establecimiento del coste de los tokens a comprar\n        uint256 coste = precioTokens(_numTokens);\n        // Evaluacion del dinero que el cliente paga por los tokens\n        require(msg.value >= coste, \"Compra menos tokens o paga con mas ethers\");\n        // Obtencion del numero de tokens ERC-20 disponibles\n        uint256 balance = balanceTokensSC();\n        require(_numTokens <= balance, \"Compra un numero menor de tokens\");\n        // Devolucion del dinero sobrante\n        uint256 returnValue = msg.value - coste;\n        // El Smart Contract devuelve la cantidad restante\n        payable(msg.sender).transfer(returnValue);\n        // Envio de los tokens al cliente/usuario\n        _transfer(address(this), msg.sender, _numTokens);\n    }\n\n    // Devolucion de tokens al Smart Contract\n    function devolverTokens(uint _numTokens) public payable {\n        // El numero de tokens debe ser mayor a 0\n        require(_numTokens > 0, \"Necesitas devolver un numero de tokens mayor a 0\");\n        // El usuario debe acreditar tener los tokens que quiere devolver\n        require(_numTokens <= balanceTokens(msg.sender), \"No tienes los tokens que deseas devolver\");\n        // El usuario transfiere los tokens al Smart Contrac\n        _transfer(msg.sender, address(this), _numTokens);\n        // El Smart Contract envia los ethers al usuario\n        payable(msg.sender).transfer(precioTokens(_numTokens));\n    }\n\n    // ============================================\n    // Gestion de la loteria\n    // ============================================\n\n    struct Boleto{\n        uint256 numero;\n        bool played;\n    }\n\n    // Precio del boleto de loteria (en tokens ERC-20)\n    uint public precioBoleto = 5;\n    // Relacion: persona que compra los boletos -> el numero de los boletos\n    //mapping(address => uint []) idPersona_boletos;\n\n    mapping(address => Boleto[]) idPersona_boletos;\n    // Relacion: boleto -> ganador\n    mapping(uint => address) ADNBoleto;\n    // Numero aleatorio\n    uint randNonce = 0;\n    // Boletos de la loteria generadors\n    uint [] boletosComprados;\n    // Registro de todos los usuarios Activos\n    address[] public activeAccounts;\n\n    // Compra de boletos de loteria\n    function compraBoleto(uint _numBoletos) public {\n        // Precio total de los boletos a comprar\n        uint precioTotal = _numBoletos*precioBoleto;\n        // Verificacion de los tokens del usuario\n        require(precioTotal <= balanceTokens(msg.sender), \n                \"No tienes tokens suficientes\");\n        // Transferencia de tokens del usuario al Smart Contract\n        _transfer(msg.sender, address(this), precioTotal);\n        /* Recoge la marca de tiempo (block.timestamp), msg.sender y un Nonce\n        (un numero que solo se utiliza una vez, para que no ejecutemos dos veces la misma \n        funcion de hash con los mismos parametros de entrada) en incremento.\n        Se utiliza 'keccak256 'para convertir estas entradas a un hash aleatorio, \n        convertir ese hash a un uint y luego utilizamos % 10000 para tomar los ultimos 4 digitos,\n        dando un valor aleatorio entre 0 - 9999. */\n        for (uint i = 0; i < _numBoletos; i++){\n            uint random = uint(keccak256(abi.encodePacked(block.timestamp, msg.sender, randNonce))) % 10000;\n            randNonce++;\n            // Almacenamiento de los datos del boletos enlazados al usuario\n            //idPersona_boletos[msg.sender].push(random);\n            idPersona_boletos[msg.sender].push(Boleto(random,false));\n            // Almacenamiento de los datos de los boletos\n            boletosComprados.push(random);\n            // Asignacion del ADN del boleto para la generacion de un ganador\n            ADNBoleto[random] = msg.sender;\n            // Creacion de un nuevo NFT para el numero de boleto\n            boletosNFTs(usuario_contract[msg.sender]).mintBoleto(msg.sender, random);\n        }\n        if(!isPlaying(msg.sender)){\n            activeAccounts.push(msg.sender);\n        }\n    }\n\n    function isPlaying(address acount) internal view returns(bool){\n        for (uint256 i = 0; i < activeAccounts.length; i++) {\n            if (activeAccounts[i] == acount) {\n                return true; // La direccin se encuentra en el array\n            }\n        }\n        return false; // La direccin no se encuentra en el array\n    }\n    \n   \n\n    // Visualizacion de los boletos del usuario,que aun no han sido jugados\n  function tusBoletos(address _propietario) public view returns (uint[] memory) {\n    Boleto[] memory boletosAux = idPersona_boletos[_propietario];\n    uint256 count = 0;\n\n    // Contar la cantidad de boletos no jugados\n    for (uint256 i = 0; i < boletosAux.length; i++) {\n        if (!boletosAux[i].played) {\n            count++;\n        }\n    }\n\n    // Inicializar el array con la longitud adecuada\n    uint[] memory boletosNoJugados = new uint[](count);\n\n    // Asignar los valores de los boletos no jugados\n    uint256 j = 0;\n    for (uint256 i = 0; i < boletosAux.length; i++) {\n        if (!boletosAux[i].played) {\n            boletosNoJugados[j] = boletosAux[i].numero;\n            j++;\n        }\n    }\n\n    return boletosNoJugados;\n}\n\n    // Generacion del ganador de la loteria\n    function generarGanador() public onlyOwner {\n        // Declaracion de la longitud del array\n        uint longitud = boletosComprados.length;\n        // Verificacion de la compra de al menos de 1 boleto\n        require(longitud > 0, \"No hay boletos comprados\");\n        // Eleccion aleatoria de un numero entre: [0-Longitud]\n        uint random = uint(uint(keccak256(abi.encodePacked(block.timestamp))) % longitud);\n        // Seleccion del numero aleatorio\n        uint eleccion = boletosComprados[random];\n        // Direccion del ganador de la loteria\n        ganador = ADNBoleto[eleccion];\n        // Envio del 95% del premio de loteria al ganador\n        payable(ganador).transfer(address(this).balance * 95 / 100);\n        // Envio del 5% del premio de loteria al owner\n        payable(owner()).transfer(address(this).balance * 5 / 100);\n        \n        // Poner como played Todos los boletos jugados\n        for (uint256 i = 0; i < activeAccounts.length; i++) {\n            address aux = activeAccounts[i];\n            Boleto[] storage boletosAux = idPersona_boletos[aux];\n    \n            for (uint256 j = 0; j < boletosAux.length; j++) {\n                if (!boletosAux[j].played) {\n                    boletosAux[j].played = true;\n                }\n            }\n        }\n        activeAccounts = new address[](0);\n        boletosComprados=new uint[](0);\n\n    }\n    function setPrecioBoleto (uint _newPrice) public onlyOwner {\n        precioBoleto=_newPrice;\n    }\n\n}\n\n// Smart Contract de NFTs\ncontract mainERC721 is ERC721 {\n\n    address public direccionLoteria;\n    constructor() ERC721(\"Loteria\", \"STE\"){\n        direccionLoteria = msg.sender;\n    }\n\n    // Creacion de NFTs\n    function safeMint(address _propietario, uint256 _boleto) public {\n        require(msg.sender == loteria(direccionLoteria).usersInfo(_propietario),\n                \"No tienes permisos para ejecutar esta funcion\");\n        _safeMint(_propietario, _boleto);\n    }\n\n}\n\ncontract boletosNFTs {\n\n    // Datos relevantes del propietario \n    struct Owner {\n        address direccionPropietario;\n        address contratoPadre;\n        address contratoNFT;\n        address contratoUsuario;\n    }\n    // Estructura de datos de tipo Owner\n    Owner public propietario;\n\n    // Constructor del Smart Contract (hijo)\n    constructor(address _propietario, address _contratoPadre, address _contratoNFT){\n        propietario = Owner(_propietario, \n                            _contratoPadre,\n                            _contratoNFT, \n                            address(this));\n    }\n\n    // Conversion de los numeros de los boletos de loteria\n    function mintBoleto(address _propietario, uint _boleto) public {\n        require(msg.sender == propietario.contratoPadre, \n                \"No tienes permisos para ejecutar esta funcion\");\n        mainERC721(propietario.contratoNFT).safeMint(_propietario, _boleto);\n    }\n\n}\n",
  "sourcePath": "/Users/mateujoanperello/Desktop/Dapps/Loteria/src/contracts/loteria.sol",
  "compiler": {
    "name": "solc",
    "version": "0.8.4+commit.c7e474f2.Emscripten.clang"
  },
  "schemaVersion": "3.4.7",
  "updatedAt": "2023-06-13T17:15:36.782Z",
  "networkType": "ethereum",
  "devdoc": {
    "kind": "dev",
    "methods": {
      "allowance(address,address)": {
        "details": "See {IERC20-allowance}."
      },
      "approve(address,uint256)": {
        "details": "See {IERC20-approve}. NOTE: If `amount` is the maximum `uint256`, the allowance is not updated on `transferFrom`. This is semantically equivalent to an infinite approval. Requirements: - `spender` cannot be the zero address."
      },
      "balanceOf(address)": {
        "details": "See {IERC20-balanceOf}."
      },
      "decimals()": {
        "details": "Returns the number of decimals used to get its user representation. For example, if `decimals` equals `2`, a balance of `505` tokens should be displayed to a user as `5.05` (`505 / 10 ** 2`). Tokens usually opt for a value of 18, imitating the relationship between Ether and Wei. This is the default value returned by this function, unless it's overridden. NOTE: This information is only used for _display_ purposes: it in no way affects any of the arithmetic of the contract, including {IERC20-balanceOf} and {IERC20-transfer}."
      },
      "decreaseAllowance(address,uint256)": {
        "details": "Atomically decreases the allowance granted to `spender` by the caller. This is an alternative to {approve} that can be used as a mitigation for problems described in {IERC20-approve}. Emits an {Approval} event indicating the updated allowance. Requirements: - `spender` cannot be the zero address. - `spender` must have allowance for the caller of at least `subtractedValue`."
      },
      "increaseAllowance(address,uint256)": {
        "details": "Atomically increases the allowance granted to `spender` by the caller. This is an alternative to {approve} that can be used as a mitigation for problems described in {IERC20-approve}. Emits an {Approval} event indicating the updated allowance. Requirements: - `spender` cannot be the zero address."
      },
      "name()": {
        "details": "Returns the name of the token."
      },
      "owner()": {
        "details": "Returns the address of the current owner."
      },
      "renounceOwnership()": {
        "details": "Leaves the contract without owner. It will not be possible to call `onlyOwner` functions. Can only be called by the current owner. NOTE: Renouncing ownership will leave the contract without an owner, thereby disabling any functionality that is only available to the owner."
      },
      "symbol()": {
        "details": "Returns the symbol of the token, usually a shorter version of the name."
      },
      "totalSupply()": {
        "details": "See {IERC20-totalSupply}."
      },
      "transfer(address,uint256)": {
        "details": "See {IERC20-transfer}. Requirements: - `to` cannot be the zero address. - the caller must have a balance of at least `amount`."
      },
      "transferFrom(address,address,uint256)": {
        "details": "See {IERC20-transferFrom}. Emits an {Approval} event indicating the updated allowance. This is not required by the EIP. See the note at the beginning of {ERC20}. NOTE: Does not update the allowance if the current allowance is the maximum `uint256`. Requirements: - `from` and `to` cannot be the zero address. - `from` must have a balance of at least `amount`. - the caller must have allowance for ``from``'s tokens of at least `amount`."
      },
      "transferOwnership(address)": {
        "details": "Transfers ownership of the contract to a new account (`newOwner`). Can only be called by the current owner."
      }
    },
    "version": 1
  },
  "userdoc": {
    "kind": "user",
    "methods": {},
    "version": 1
  }
}