{
  "contractName": "loteria",
  "abi": [
    {
      "inputs": [],
      "stateMutability": "nonpayable",
      "type": "constructor"
    },
    {
      "anonymous": false,
      "inputs": [
        {
          "indexed": true,
          "internalType": "address",
          "name": "owner",
          "type": "address"
        },
        {
          "indexed": true,
          "internalType": "address",
          "name": "spender",
          "type": "address"
        },
        {
          "indexed": false,
          "internalType": "uint256",
          "name": "value",
          "type": "uint256"
        }
      ],
      "name": "Approval",
      "type": "event"
    },
    {
      "anonymous": false,
      "inputs": [
        {
          "indexed": true,
          "internalType": "address",
          "name": "previousOwner",
          "type": "address"
        },
        {
          "indexed": true,
          "internalType": "address",
          "name": "newOwner",
          "type": "address"
        }
      ],
      "name": "OwnershipTransferred",
      "type": "event"
    },
    {
      "anonymous": false,
      "inputs": [
        {
          "indexed": true,
          "internalType": "address",
          "name": "from",
          "type": "address"
        },
        {
          "indexed": true,
          "internalType": "address",
          "name": "to",
          "type": "address"
        },
        {
          "indexed": false,
          "internalType": "uint256",
          "name": "value",
          "type": "uint256"
        }
      ],
      "name": "Transfer",
      "type": "event"
    },
    {
      "inputs": [
        {
          "internalType": "address",
          "name": "owner",
          "type": "address"
        },
        {
          "internalType": "address",
          "name": "spender",
          "type": "address"
        }
      ],
      "name": "allowance",
      "outputs": [
        {
          "internalType": "uint256",
          "name": "",
          "type": "uint256"
        }
      ],
      "stateMutability": "view",
      "type": "function",
      "constant": true
    },
    {
      "inputs": [
        {
          "internalType": "address",
          "name": "spender",
          "type": "address"
        },
        {
          "internalType": "uint256",
          "name": "amount",
          "type": "uint256"
        }
      ],
      "name": "approve",
      "outputs": [
        {
          "internalType": "bool",
          "name": "",
          "type": "bool"
        }
      ],
      "stateMutability": "nonpayable",
      "type": "function"
    },
    {
      "inputs": [
        {
          "internalType": "address",
          "name": "account",
          "type": "address"
        }
      ],
      "name": "balanceOf",
      "outputs": [
        {
          "internalType": "uint256",
          "name": "",
          "type": "uint256"
        }
      ],
      "stateMutability": "view",
      "type": "function",
      "constant": true
    },
    {
      "inputs": [],
      "name": "decimals",
      "outputs": [
        {
          "internalType": "uint8",
          "name": "",
          "type": "uint8"
        }
      ],
      "stateMutability": "view",
      "type": "function",
      "constant": true
    },
    {
      "inputs": [
        {
          "internalType": "address",
          "name": "spender",
          "type": "address"
        },
        {
          "internalType": "uint256",
          "name": "subtractedValue",
          "type": "uint256"
        }
      ],
      "name": "decreaseAllowance",
      "outputs": [
        {
          "internalType": "bool",
          "name": "",
          "type": "bool"
        }
      ],
      "stateMutability": "nonpayable",
      "type": "function"
    },
    {
      "inputs": [],
      "name": "ganador",
      "outputs": [
        {
          "internalType": "address",
          "name": "",
          "type": "address"
        }
      ],
      "stateMutability": "view",
      "type": "function",
      "constant": true
    },
    {
      "inputs": [
        {
          "internalType": "address",
          "name": "spender",
          "type": "address"
        },
        {
          "internalType": "uint256",
          "name": "addedValue",
          "type": "uint256"
        }
      ],
      "name": "increaseAllowance",
      "outputs": [
        {
          "internalType": "bool",
          "name": "",
          "type": "bool"
        }
      ],
      "stateMutability": "nonpayable",
      "type": "function"
    },
    {
      "inputs": [],
      "name": "name",
      "outputs": [
        {
          "internalType": "string",
          "name": "",
          "type": "string"
        }
      ],
      "stateMutability": "view",
      "type": "function",
      "constant": true
    },
    {
      "inputs": [],
      "name": "nft",
      "outputs": [
        {
          "internalType": "address",
          "name": "",
          "type": "address"
        }
      ],
      "stateMutability": "view",
      "type": "function",
      "constant": true
    },
    {
      "inputs": [],
      "name": "owner",
      "outputs": [
        {
          "internalType": "address",
          "name": "",
          "type": "address"
        }
      ],
      "stateMutability": "view",
      "type": "function",
      "constant": true
    },
    {
      "inputs": [],
      "name": "precioBoleto",
      "outputs": [
        {
          "internalType": "uint256",
          "name": "",
          "type": "uint256"
        }
      ],
      "stateMutability": "view",
      "type": "function",
      "constant": true
    },
    {
      "inputs": [],
      "name": "renounceOwnership",
      "outputs": [],
      "stateMutability": "nonpayable",
      "type": "function"
    },
    {
      "inputs": [],
      "name": "symbol",
      "outputs": [
        {
          "internalType": "string",
          "name": "",
          "type": "string"
        }
      ],
      "stateMutability": "view",
      "type": "function",
      "constant": true
    },
    {
      "inputs": [],
      "name": "totalSupply",
      "outputs": [
        {
          "internalType": "uint256",
          "name": "",
          "type": "uint256"
        }
      ],
      "stateMutability": "view",
      "type": "function",
      "constant": true
    },
    {
      "inputs": [
        {
          "internalType": "address",
          "name": "to",
          "type": "address"
        },
        {
          "internalType": "uint256",
          "name": "amount",
          "type": "uint256"
        }
      ],
      "name": "transfer",
      "outputs": [
        {
          "internalType": "bool",
          "name": "",
          "type": "bool"
        }
      ],
      "stateMutability": "nonpayable",
      "type": "function"
    },
    {
      "inputs": [
        {
          "internalType": "address",
          "name": "from",
          "type": "address"
        },
        {
          "internalType": "address",
          "name": "to",
          "type": "address"
        },
        {
          "internalType": "uint256",
          "name": "amount",
          "type": "uint256"
        }
      ],
      "name": "transferFrom",
      "outputs": [
        {
          "internalType": "bool",
          "name": "",
          "type": "bool"
        }
      ],
      "stateMutability": "nonpayable",
      "type": "function"
    },
    {
      "inputs": [
        {
          "internalType": "address",
          "name": "newOwner",
          "type": "address"
        }
      ],
      "name": "transferOwnership",
      "outputs": [],
      "stateMutability": "nonpayable",
      "type": "function"
    },
    {
      "inputs": [
        {
          "internalType": "address",
          "name": "",
          "type": "address"
        }
      ],
      "name": "usuario_contract",
      "outputs": [
        {
          "internalType": "address",
          "name": "",
          "type": "address"
        }
      ],
      "stateMutability": "view",
      "type": "function",
      "constant": true
    },
    {
      "inputs": [
        {
          "internalType": "address",
          "name": "_account",
          "type": "address"
        }
      ],
      "name": "balanceTokens",
      "outputs": [
        {
          "internalType": "uint256",
          "name": "",
          "type": "uint256"
        }
      ],
      "stateMutability": "view",
      "type": "function",
      "constant": true
    },
    {
      "inputs": [],
      "name": "balanceTokensSC",
      "outputs": [
        {
          "internalType": "uint256",
          "name": "",
          "type": "uint256"
        }
      ],
      "stateMutability": "view",
      "type": "function",
      "constant": true
    },
    {
      "inputs": [],
      "name": "balanceEthersSC",
      "outputs": [
        {
          "internalType": "uint256",
          "name": "",
          "type": "uint256"
        }
      ],
      "stateMutability": "view",
      "type": "function",
      "constant": true
    },
    {
      "inputs": [
        {
          "internalType": "uint256",
          "name": "_cantidad",
          "type": "uint256"
        }
      ],
      "name": "mint",
      "outputs": [],
      "stateMutability": "nonpayable",
      "type": "function"
    },
    {
      "inputs": [
        {
          "internalType": "address",
          "name": "_account",
          "type": "address"
        }
      ],
      "name": "usersInfo",
      "outputs": [
        {
          "internalType": "address",
          "name": "",
          "type": "address"
        }
      ],
      "stateMutability": "view",
      "type": "function",
      "constant": true
    },
    {
      "inputs": [
        {
          "internalType": "uint256",
          "name": "_numTokens",
          "type": "uint256"
        }
      ],
      "name": "compraTokens",
      "outputs": [],
      "stateMutability": "payable",
      "type": "function",
      "payable": true
    },
    {
      "inputs": [
        {
          "internalType": "uint256",
          "name": "_numTokens",
          "type": "uint256"
        }
      ],
      "name": "devolverTokens",
      "outputs": [],
      "stateMutability": "payable",
      "type": "function",
      "payable": true
    },
    {
      "inputs": [
        {
          "internalType": "uint256",
          "name": "_numBoletos",
          "type": "uint256"
        }
      ],
      "name": "compraBoleto",
      "outputs": [],
      "stateMutability": "nonpayable",
      "type": "function"
    },
    {
      "inputs": [
        {
          "internalType": "address",
          "name": "_propietario",
          "type": "address"
        }
      ],
      "name": "tusBoletos",
      "outputs": [
        {
          "internalType": "uint256[]",
          "name": "",
          "type": "uint256[]"
        }
      ],
      "stateMutability": "view",
      "type": "function",
      "constant": true
    },
    {
      "inputs": [],
      "name": "generarGanador",
      "outputs": [],
      "stateMutability": "nonpayable",
      "type": "function"
    }
  ],
  "bytecode": "0x608060405260056009556000600c553480156200001b57600080fd5b506040518060400160405280600781526020017f4c6f7465726961000000000000000000000000000000000000000000000000008152506040518060400160405280600281526020017f4a410000000000000000000000000000000000000000000000000000000000008152508160039080519060200190620000a0929190620003a9565b508060049080519060200190620000b9929190620003a9565b505050620000dc620000d06200016360201b60201c565b6200016b60201b60201c565b620000f130620186a06200023160201b60201c565b604051620000ff906200043a565b604051809103906000f0801580156200011c573d6000803e3d6000fd5b50600660006101000a81548173ffffffffffffffffffffffffffffffffffffffff021916908373ffffffffffffffffffffffffffffffffffffffff16021790555062000613565b600033905090565b6000600560009054906101000a900473ffffffffffffffffffffffffffffffffffffffff16905081600560006101000a81548173ffffffffffffffffffffffffffffffffffffffff021916908373ffffffffffffffffffffffffffffffffffffffff1602179055508173ffffffffffffffffffffffffffffffffffffffff168173ffffffffffffffffffffffffffffffffffffffff167f8be0079c531659141344cd1fd0a4f28419497f9722a3daafe3b4186f6b6457e060405160405180910390a35050565b600073ffffffffffffffffffffffffffffffffffffffff168273ffffffffffffffffffffffffffffffffffffffff161415620002a4576040517f08c379a00000000000000000000000000000000000000000000000000000000081526004016200029b906200049f565b60405180910390fd5b620002b8600083836200039f60201b60201c565b8060026000828254620002cc9190620004ef565b92505081905550806000808473ffffffffffffffffffffffffffffffffffffffff1673ffffffffffffffffffffffffffffffffffffffff168152602001908152602001600020600082825401925050819055508173ffffffffffffffffffffffffffffffffffffffff16600073ffffffffffffffffffffffffffffffffffffffff167fddf252ad1be2c89b69c2b068fc378daa952ba7f163c4a11628f55a4df523b3ef836040516200037f9190620004c1565b60405180910390a36200039b60008383620003a460201b60201c565b5050565b505050565b505050565b828054620003b79062000556565b90600052602060002090601f016020900481019282620003db576000855562000427565b82601f10620003f657805160ff191683800117855562000427565b8280016001018555821562000427579182015b828111156200042657825182559160200191906001019062000409565b5b50905062000436919062000448565b5090565b612a0f8062003c2783390190565b5b808211156200046357600081600090555060010162000449565b5090565b600062000476601f83620004de565b91506200048382620005ea565b602082019050919050565b62000499816200054c565b82525050565b60006020820190508181036000830152620004ba8162000467565b9050919050565b6000602082019050620004d860008301846200048e565b92915050565b600082825260208201905092915050565b6000620004fc826200054c565b915062000509836200054c565b9250827fffffffffffffffffffffffffffffffffffffffffffffffffffffffffffffffff038211156200054157620005406200058c565b5b828201905092915050565b6000819050919050565b600060028204905060018216806200056f57607f821691505b60208210811415620005865762000585620005bb565b5b50919050565b7f4e487b7100000000000000000000000000000000000000000000000000000000600052601160045260246000fd5b7f4e487b7100000000000000000000000000000000000000000000000000000000600052602260045260246000fd5b7f45524332303a206d696e7420746f20746865207a65726f206164647265737300600082015250565b61360480620006236000396000f3fe608060405260043610620001e25760003560e01c80639114bde81162000103578063b934c3841162000097578063e51c9bdf116200006d578063e51c9bdf14620006e1578063ee5ade83146200070f578063f2fde38b146200073f578063f9b4527a146200076d57620001e2565b8063b934c384146200064d578063c29dd7c9146200067d578063dd62ed3e146200069d57620001e2565b806395d89b4111620000d957806395d89b411462000567578063a0712d681462000597578063a457c2d714620005c5578063a9059cbb146200060957620001e2565b80639114bde814620004c3578063912cf30414620004f357806392ef10d8146200053757620001e2565b806339509351116200017b57806370a08231116200015157806370a08231146200041b578063715018a6146200045f57806389e25c2814620004795780638da5cb5b146200049357620001e2565b806339509351146200036357806347ccca0214620003a75780635d0eaaaf14620003d757620001e2565b806323acfa8111620001bd57806323acfa81146200028b57806323b872dd14620002cf5780632e95161c1462000313578063313ce567146200033357620001e2565b806306fdde0314620001e7578063095ea7b3146200021757806318160ddd146200025b575b600080fd5b348015620001f457600080fd5b50620001ff620007b1565b6040516200020e919062002461565b60405180910390f35b3480156200022457600080fd5b506200024360048036038101906200023d919062001f0c565b6200084b565b60405162000252919062002444565b60405180910390f35b3480156200026857600080fd5b506200027362000872565b604051620002829190620026a5565b60405180910390f35b3480156200029857600080fd5b50620002b76004803603810190620002b1919062001e49565b6200087c565b604051620002c6919062002399565b60405180910390f35b348015620002dc57600080fd5b50620002fb6004803603810190620002f5919062001eb6565b620008af565b6040516200030a919062002444565b60405180910390f35b6200033160048036038101906200032b919062001f4d565b620008e4565b005b3480156200034057600080fd5b506200034b620009dc565b6040516200035a9190620026c2565b60405180910390f35b3480156200037057600080fd5b506200038f600480360381019062000389919062001f0c565b620009e5565b6040516200039e919062002444565b60405180910390f35b348015620003b457600080fd5b50620003bf62000a24565b604051620003ce919062002399565b60405180910390f35b348015620003e457600080fd5b50620004036004803603810190620003fd919062001e49565b62000a4a565b60405162000412919062002399565b60405180910390f35b3480156200042857600080fd5b5062000447600480360381019062000441919062001e49565b62000ab3565b604051620004569190620026a5565b60405180910390f35b3480156200046c57600080fd5b506200047762000afb565b005b3480156200048657600080fd5b506200049162000b13565b005b348015620004a057600080fd5b50620004ab62000d60565b604051620004ba919062002399565b60405180910390f35b348015620004d057600080fd5b50620004db62000d8a565b604051620004ea919062002399565b60405180910390f35b3480156200050057600080fd5b506200051f600480360381019062000519919062001e49565b62000db0565b6040516200052e919062002420565b60405180910390f35b3480156200054457600080fd5b506200054f62000e49565b6040516200055e9190620026a5565b60405180910390f35b3480156200057457600080fd5b506200057f62000e5b565b6040516200058e919062002461565b60405180910390f35b348015620005a457600080fd5b50620005c36004803603810190620005bd919062001f4d565b62000ef5565b005b348015620005d257600080fd5b50620005f16004803603810190620005eb919062001f0c565b62000f0e565b60405162000600919062002444565b60405180910390f35b3480156200061657600080fd5b506200063560048036038101906200062f919062001f0c565b62000f8e565b60405162000644919062002444565b60405180910390f35b3480156200065a57600080fd5b506200066562000fb5565b604051620006749190620026a5565b60405180910390f35b6200069b600480360381019062000695919062001f4d565b62000fd2565b005b348015620006aa57600080fd5b50620006c96004803603810190620006c3919062001e75565b62001188565b604051620006d89190620026a5565b60405180910390f35b348015620006ee57600080fd5b506200070d600480360381019062000707919062001f4d565b6200120f565b005b3480156200071c57600080fd5b5062000727620014b8565b604051620007369190620026a5565b60405180910390f35b3480156200074c57600080fd5b506200076b600480360381019062000765919062001e49565b620014be565b005b3480156200077a57600080fd5b5062000799600480360381019062000793919062001e49565b62001549565b604051620007a89190620026a5565b60405180910390f35b606060038054620007c290620028f2565b80601f0160208091040260200160405190810160405280929190818152602001828054620007f090620028f2565b8015620008415780601f10620008155761010080835404028352916020019162000841565b820191906000526020600020905b8154815290600101906020018083116200082357829003601f168201915b5050505050905090565b600080620008586200155d565b90506200086781858562001565565b600191505092915050565b6000600254905090565b60086020528060005260406000206000915054906101000a900473ffffffffffffffffffffffffffffffffffffffff1681565b600080620008bc6200155d565b9050620008cb85828562001738565b620008d8858585620017cc565b60019150509392505050565b600081116200092a576040517f08c379a000000000000000000000000000000000000000000000000000000000815260040162000921906200252f565b60405180910390fd5b620009353362001549565b8111156200097a576040517f08c379a000000000000000000000000000000000000000000000000000000000815260040162000971906200263f565b60405180910390fd5b62000987333083620017cc565b3373ffffffffffffffffffffffffffffffffffffffff166108fc620009ac8362001a53565b9081150290604051600060405180830381858888f19350505050158015620009d8573d6000803e3d6000fd5b5050565b60006012905090565b600080620009f26200155d565b905062000a1981858562000a07858962001188565b62000a13919062002734565b62001565565b600191505092915050565b600660009054906101000a900473ffffffffffffffffffffffffffffffffffffffff1681565b6000600860008373ffffffffffffffffffffffffffffffffffffffff1673ffffffffffffffffffffffffffffffffffffffff16815260200190815260200160002060009054906101000a900473ffffffffffffffffffffffffffffffffffffffff169050919050565b60008060008373ffffffffffffffffffffffffffffffffffffffff1673ffffffffffffffffffffffffffffffffffffffff168152602001908152602001600020549050919050565b62000b0562001a72565b62000b11600062001af7565b565b62000b1d62001a72565b6000600d8054905090506000811162000b6d576040517f08c379a000000000000000000000000000000000000000000000000000000000815260040162000b649062002573565b60405180910390fd5b6000814260405160200162000b83919062002339565b6040516020818303038152906040528051906020012060001c62000ba89190620029a8565b90506000600d828154811062000be7577f4e487b7100000000000000000000000000000000000000000000000000000000600052603260045260246000fd5b90600052602060002001549050600b600082815260200190815260200160002060009054906101000a900473ffffffffffffffffffffffffffffffffffffffff16600760006101000a81548173ffffffffffffffffffffffffffffffffffffffff021916908373ffffffffffffffffffffffffffffffffffffffff160217905550600760009054906101000a900473ffffffffffffffffffffffffffffffffffffffff1673ffffffffffffffffffffffffffffffffffffffff166108fc6064605f4762000cb59190620027c9565b62000cc1919062002791565b9081150290604051600060405180830381858888f1935050505015801562000ced573d6000803e3d6000fd5b5062000cf862000d60565b73ffffffffffffffffffffffffffffffffffffffff166108fc606460054762000d229190620027c9565b62000d2e919062002791565b9081150290604051600060405180830381858888f1935050505015801562000d5a573d6000803e3d6000fd5b50505050565b6000600560009054906101000a900473ffffffffffffffffffffffffffffffffffffffff16905090565b600760009054906101000a900473ffffffffffffffffffffffffffffffffffffffff1681565b6060600a60008373ffffffffffffffffffffffffffffffffffffffff1673ffffffffffffffffffffffffffffffffffffffff16815260200190815260200160002080548060200260200160405190810160405280929190818152602001828054801562000e3d57602002820191906000526020600020905b81548152602001906001019080831162000e28575b50505050509050919050565b600062000e563062000ab3565b905090565b60606004805462000e6c90620028f2565b80601f016020809104026020016040519081016040528092919081815260200182805462000e9a90620028f2565b801562000eeb5780601f1062000ebf5761010080835404028352916020019162000eeb565b820191906000526020600020905b81548152906001019060200180831162000ecd57829003601f168201915b5050505050905090565b62000eff62001a72565b62000f0b308262001bbd565b50565b60008062000f1b6200155d565b9050600062000f2b828662001188565b90508381101562000f73576040517f08c379a000000000000000000000000000000000000000000000000000000000815260040162000f6a9062002661565b60405180910390fd5b62000f82828686840362001565565b60019250505092915050565b60008062000f9b6200155d565b905062000faa818585620017cc565b600191505092915050565b6000670de0b6b3a76400004762000fcd919062002791565b905090565b600073ffffffffffffffffffffffffffffffffffffffff16600860003373ffffffffffffffffffffffffffffffffffffffff1673ffffffffffffffffffffffffffffffffffffffff16815260200190815260200160002060009054906101000a900473ffffffffffffffffffffffffffffffffffffffff1673ffffffffffffffffffffffffffffffffffffffff16141562001072576200107162001d1f565b5b60006200107f8262001a53565b905080341015620010c7576040517f08c379a0000000000000000000000000000000000000000000000000000000008152600401620010be906200261d565b60405180910390fd5b6000620010d362000e49565b9050808311156200111b576040517f08c379a0000000000000000000000000000000000000000000000000000000008152600401620011129062002595565b60405180910390fd5b600082346200112b91906200282a565b90503373ffffffffffffffffffffffffffffffffffffffff166108fc829081150290604051600060405180830381858888f1935050505015801562001174573d6000803e3d6000fd5b5062001182303386620017cc565b50505050565b6000600160008473ffffffffffffffffffffffffffffffffffffffff1673ffffffffffffffffffffffffffffffffffffffff16815260200190815260200160002060008373ffffffffffffffffffffffffffffffffffffffff1673ffffffffffffffffffffffffffffffffffffffff16815260200190815260200160002054905092915050565b600060095482620012219190620027c9565b90506200122e3362001549565b81111562001273576040517f08c379a00000000000000000000000000000000000000000000000000000000081526004016200126a906200250d565b60405180910390fd5b62001280333083620017cc565b60005b82811015620014b35760006127104233600c54604051602001620012aa9392919062002356565b6040516020818303038152906040528051906020012060001c620012cf9190620029a8565b9050600c6000815480929190620012e69062002928565b9190505550600a60003373ffffffffffffffffffffffffffffffffffffffff1673ffffffffffffffffffffffffffffffffffffffff168152602001908152602001600020819080600181540180825580915050600190039060005260206000200160009091909190915055600d81908060018154018082558091505060019003906000526020600020016000909190919091505533600b600083815260200190815260200160002060006101000a81548173ffffffffffffffffffffffffffffffffffffffff021916908373ffffffffffffffffffffffffffffffffffffffff160217905550600860003373ffffffffffffffffffffffffffffffffffffffff1673ffffffffffffffffffffffffffffffffffffffff16815260200190815260200160002060009054906101000a900473ffffffffffffffffffffffffffffffffffffffff1673ffffffffffffffffffffffffffffffffffffffff1663120e852333836040518363ffffffff1660e01b815260040162001468929190620023f3565b600060405180830381600087803b1580156200148357600080fd5b505af115801562001498573d6000803e3d6000fd5b50505050508080620014aa9062002928565b91505062001283565b505050565b60095481565b620014c862001a72565b600073ffffffffffffffffffffffffffffffffffffffff168173ffffffffffffffffffffffffffffffffffffffff1614156200153b576040517f08c379a00000000000000000000000000000000000000000000000000000000081526004016200153290620024a7565b60405180910390fd5b620015468162001af7565b50565b6000620015568262000ab3565b9050919050565b600033905090565b600073ffffffffffffffffffffffffffffffffffffffff168373ffffffffffffffffffffffffffffffffffffffff161415620015d8576040517f08c379a0000000000000000000000000000000000000000000000000000000008152600401620015cf90620025fb565b60405180910390fd5b600073ffffffffffffffffffffffffffffffffffffffff168273ffffffffffffffffffffffffffffffffffffffff1614156200164b576040517f08c379a00000000000000000000000000000000000000000000000000000000081526004016200164290620024c9565b60405180910390fd5b80600160008573ffffffffffffffffffffffffffffffffffffffff1673ffffffffffffffffffffffffffffffffffffffff16815260200190815260200160002060008473ffffffffffffffffffffffffffffffffffffffff1673ffffffffffffffffffffffffffffffffffffffff168152602001908152602001600020819055508173ffffffffffffffffffffffffffffffffffffffff168373ffffffffffffffffffffffffffffffffffffffff167f8c5be1e5ebec7d5bd14f71427d1e84f3dd0314c0f7b2291e5b200ac8c7c3b925836040516200172b9190620026a5565b60405180910390a3505050565b600062001746848462001188565b90507fffffffffffffffffffffffffffffffffffffffffffffffffffffffffffffffff8114620017c65781811015620017b6576040517f08c379a0000000000000000000000000000000000000000000000000000000008152600401620017ad90620024eb565b60405180910390fd5b620017c5848484840362001565565b5b50505050565b600073ffffffffffffffffffffffffffffffffffffffff168373ffffffffffffffffffffffffffffffffffffffff1614156200183f576040517f08c379a00000000000000000000000000000000000000000000000000000000081526004016200183690620025d9565b60405180910390fd5b600073ffffffffffffffffffffffffffffffffffffffff168273ffffffffffffffffffffffffffffffffffffffff161415620018b2576040517f08c379a0000000000000000000000000000000000000000000000000000000008152600401620018a99062002485565b60405180910390fd5b620018bf83838362001e03565b60008060008573ffffffffffffffffffffffffffffffffffffffff1673ffffffffffffffffffffffffffffffffffffffff1681526020019081526020016000205490508181101562001948576040517f08c379a00000000000000000000000000000000000000000000000000000000081526004016200193f9062002551565b60405180910390fd5b8181036000808673ffffffffffffffffffffffffffffffffffffffff1673ffffffffffffffffffffffffffffffffffffffff16815260200190815260200160002081905550816000808573ffffffffffffffffffffffffffffffffffffffff1673ffffffffffffffffffffffffffffffffffffffff168152602001908152602001600020600082825401925050819055508273ffffffffffffffffffffffffffffffffffffffff168473ffffffffffffffffffffffffffffffffffffffff167fddf252ad1be2c89b69c2b068fc378daa952ba7f163c4a11628f55a4df523b3ef8460405162001a389190620026a5565b60405180910390a362001a4d84848462001e08565b50505050565b6000670de0b6b3a76400008262001a6b9190620027c9565b9050919050565b62001a7c6200155d565b73ffffffffffffffffffffffffffffffffffffffff1662001a9c62000d60565b73ffffffffffffffffffffffffffffffffffffffff161462001af5576040517f08c379a000000000000000000000000000000000000000000000000000000000815260040162001aec90620025b7565b60405180910390fd5b565b6000600560009054906101000a900473ffffffffffffffffffffffffffffffffffffffff16905081600560006101000a81548173ffffffffffffffffffffffffffffffffffffffff021916908373ffffffffffffffffffffffffffffffffffffffff1602179055508173ffffffffffffffffffffffffffffffffffffffff168173ffffffffffffffffffffffffffffffffffffffff167f8be0079c531659141344cd1fd0a4f28419497f9722a3daafe3b4186f6b6457e060405160405180910390a35050565b600073ffffffffffffffffffffffffffffffffffffffff168273ffffffffffffffffffffffffffffffffffffffff16141562001c30576040517f08c379a000000000000000000000000000000000000000000000000000000000815260040162001c279062002683565b60405180910390fd5b62001c3e6000838362001e03565b806002600082825462001c52919062002734565b92505081905550806000808473ffffffffffffffffffffffffffffffffffffffff1673ffffffffffffffffffffffffffffffffffffffff168152602001908152602001600020600082825401925050819055508173ffffffffffffffffffffffffffffffffffffffff16600073ffffffffffffffffffffffffffffffffffffffff167fddf252ad1be2c89b69c2b068fc378daa952ba7f163c4a11628f55a4df523b3ef8360405162001d059190620026a5565b60405180910390a362001d1b6000838362001e08565b5050565b60003330600660009054906101000a900473ffffffffffffffffffffffffffffffffffffffff1660405162001d549062001e0d565b62001d6293929190620023b6565b604051809103906000f08015801562001d7f573d6000803e3d6000fd5b50905080600860003373ffffffffffffffffffffffffffffffffffffffff1673ffffffffffffffffffffffffffffffffffffffff16815260200190815260200160002060006101000a81548173ffffffffffffffffffffffffffffffffffffffff021916908373ffffffffffffffffffffffffffffffffffffffff16021790555050565b505050565b505050565b6107038062002ecc83390190565b60008135905062001e2c8162002e97565b92915050565b60008135905062001e438162002eb1565b92915050565b60006020828403121562001e5c57600080fd5b600062001e6c8482850162001e1b565b91505092915050565b6000806040838503121562001e8957600080fd5b600062001e998582860162001e1b565b925050602062001eac8582860162001e1b565b9150509250929050565b60008060006060848603121562001ecc57600080fd5b600062001edc8682870162001e1b565b935050602062001eef8682870162001e1b565b925050604062001f028682870162001e32565b9150509250925092565b6000806040838503121562001f2057600080fd5b600062001f308582860162001e1b565b925050602062001f438582860162001e32565b9150509250929050565b60006020828403121562001f6057600080fd5b600062001f708482850162001e32565b91505092915050565b600062001f878383620022eb565b60208301905092915050565b62001f9e8162002865565b82525050565b62001fb962001fb38262002865565b62002976565b82525050565b600062001fcc82620026ef565b62001fd8818562002712565b935062001fe583620026df565b8060005b838110156200201c57815162002000888262001f79565b97506200200d8362002705565b92505060018101905062001fe9565b5085935050505092915050565b620020348162002879565b82525050565b60006200204782620026fa565b62002053818562002723565b935062002065818560208601620028bc565b620020708162002a6d565b840191505092915050565b60006200208a60238362002723565b9150620020978262002a8b565b604082019050919050565b6000620020b160268362002723565b9150620020be8262002ada565b604082019050919050565b6000620020d860228362002723565b9150620020e58262002b29565b604082019050919050565b6000620020ff601d8362002723565b91506200210c8262002b78565b602082019050919050565b600062002126601c8362002723565b9150620021338262002ba1565b602082019050919050565b60006200214d60308362002723565b91506200215a8262002bca565b604082019050919050565b60006200217460268362002723565b9150620021818262002c19565b604082019050919050565b60006200219b60188362002723565b9150620021a88262002c68565b602082019050919050565b6000620021c260208362002723565b9150620021cf8262002c91565b602082019050919050565b6000620021e960208362002723565b9150620021f68262002cba565b602082019050919050565b60006200221060258362002723565b91506200221d8262002ce3565b604082019050919050565b60006200223760248362002723565b9150620022448262002d32565b604082019050919050565b60006200225e60298362002723565b91506200226b8262002d81565b604082019050919050565b60006200228560288362002723565b9150620022928262002dd0565b604082019050919050565b6000620022ac60258362002723565b9150620022b98262002e1f565b604082019050919050565b6000620022d3601f8362002723565b9150620022e08262002e6e565b602082019050919050565b620022f681620028a5565b82525050565b6200230781620028a5565b82525050565b620023226200231c82620028a5565b6200299e565b82525050565b6200233381620028af565b82525050565b60006200234782846200230d565b60208201915081905092915050565b60006200236482866200230d565b60208201915062002376828562001fa4565b6014820191506200238882846200230d565b602082019150819050949350505050565b6000602082019050620023b0600083018462001f93565b92915050565b6000606082019050620023cd600083018662001f93565b620023dc602083018562001f93565b620023eb604083018462001f93565b949350505050565b60006040820190506200240a600083018562001f93565b620024196020830184620022fc565b9392505050565b600060208201905081810360008301526200243c818462001fbf565b905092915050565b60006020820190506200245b600083018462002029565b92915050565b600060208201905081810360008301526200247d81846200203a565b905092915050565b60006020820190508181036000830152620024a0816200207b565b9050919050565b60006020820190508181036000830152620024c281620020a2565b9050919050565b60006020820190508181036000830152620024e481620020c9565b9050919050565b600060208201905081810360008301526200250681620020f0565b9050919050565b60006020820190508181036000830152620025288162002117565b9050919050565b600060208201905081810360008301526200254a816200213e565b9050919050565b600060208201905081810360008301526200256c8162002165565b9050919050565b600060208201905081810360008301526200258e816200218c565b9050919050565b60006020820190508181036000830152620025b081620021b3565b9050919050565b60006020820190508181036000830152620025d281620021da565b9050919050565b60006020820190508181036000830152620025f48162002201565b9050919050565b60006020820190508181036000830152620026168162002228565b9050919050565b6000602082019050818103600083015262002638816200224f565b9050919050565b600060208201905081810360008301526200265a8162002276565b9050919050565b600060208201905081810360008301526200267c816200229d565b9050919050565b600060208201905081810360008301526200269e81620022c4565b9050919050565b6000602082019050620026bc6000830184620022fc565b92915050565b6000602082019050620026d9600083018462002328565b92915050565b6000819050602082019050919050565b600081519050919050565b600081519050919050565b6000602082019050919050565b600082825260208201905092915050565b600082825260208201905092915050565b60006200274182620028a5565b91506200274e83620028a5565b9250827fffffffffffffffffffffffffffffffffffffffffffffffffffffffffffffffff03821115620027865762002785620029e0565b5b828201905092915050565b60006200279e82620028a5565b9150620027ab83620028a5565b925082620027be57620027bd62002a0f565b5b828204905092915050565b6000620027d682620028a5565b9150620027e383620028a5565b9250817fffffffffffffffffffffffffffffffffffffffffffffffffffffffffffffffff04831182151516156200281f576200281e620029e0565b5b828202905092915050565b60006200283782620028a5565b91506200284483620028a5565b9250828210156200285a5762002859620029e0565b5b828203905092915050565b6000620028728262002885565b9050919050565b60008115159050919050565b600073ffffffffffffffffffffffffffffffffffffffff82169050919050565b6000819050919050565b600060ff82169050919050565b60005b83811015620028dc578082015181840152602081019050620028bf565b83811115620028ec576000848401525b50505050565b600060028204905060018216806200290b57607f821691505b6020821081141562002922576200292162002a3e565b5b50919050565b60006200293582620028a5565b91507fffffffffffffffffffffffffffffffffffffffffffffffffffffffffffffffff8214156200296b576200296a620029e0565b5b600182019050919050565b600062002983826200298a565b9050919050565b6000620029978262002a7e565b9050919050565b6000819050919050565b6000620029b582620028a5565b9150620029c283620028a5565b925082620029d557620029d462002a0f565b5b828206905092915050565b7f4e487b7100000000000000000000000000000000000000000000000000000000600052601160045260246000fd5b7f4e487b7100000000000000000000000000000000000000000000000000000000600052601260045260246000fd5b7f4e487b7100000000000000000000000000000000000000000000000000000000600052602260045260246000fd5b6000601f19601f8301169050919050565b60008160601b9050919050565b7f45524332303a207472616e7366657220746f20746865207a65726f206164647260008201527f6573730000000000000000000000000000000000000000000000000000000000602082015250565b7f4f776e61626c653a206e6577206f776e657220697320746865207a65726f206160008201527f6464726573730000000000000000000000000000000000000000000000000000602082015250565b7f45524332303a20617070726f766520746f20746865207a65726f20616464726560008201527f7373000000000000000000000000000000000000000000000000000000000000602082015250565b7f45524332303a20696e73756666696369656e7420616c6c6f77616e6365000000600082015250565b7f4e6f207469656e657320746f6b656e7320737566696369656e74657300000000600082015250565b7f4e6563657369746173206465766f6c76657220756e206e756d65726f2064652060008201527f746f6b656e73206d61796f722061203000000000000000000000000000000000602082015250565b7f45524332303a207472616e7366657220616d6f756e742065786365656473206260008201527f616c616e63650000000000000000000000000000000000000000000000000000602082015250565b7f4e6f2068617920626f6c65746f7320636f6d707261646f730000000000000000600082015250565b7f436f6d70726120756e206e756d65726f206d656e6f7220646520746f6b656e73600082015250565b7f4f776e61626c653a2063616c6c6572206973206e6f7420746865206f776e6572600082015250565b7f45524332303a207472616e736665722066726f6d20746865207a65726f20616460008201527f6472657373000000000000000000000000000000000000000000000000000000602082015250565b7f45524332303a20617070726f76652066726f6d20746865207a65726f2061646460008201527f7265737300000000000000000000000000000000000000000000000000000000602082015250565b7f436f6d707261206d656e6f7320746f6b656e73206f207061676120636f6e206d60008201527f6173206574686572730000000000000000000000000000000000000000000000602082015250565b7f4e6f207469656e6573206c6f7320746f6b656e7320717565206465736561732060008201527f6465766f6c766572000000000000000000000000000000000000000000000000602082015250565b7f45524332303a2064656372656173656420616c6c6f77616e63652062656c6f7760008201527f207a65726f000000000000000000000000000000000000000000000000000000602082015250565b7f45524332303a206d696e7420746f20746865207a65726f206164647265737300600082015250565b62002ea28162002865565b811462002eae57600080fd5b50565b62002ebc81620028a5565b811462002ec857600080fd5b5056fe608060405234801561001057600080fd5b50604051610703380380610703833981810160405281019061003291906101e8565b60405180608001604052808473ffffffffffffffffffffffffffffffffffffffff1681526020018373ffffffffffffffffffffffffffffffffffffffff1681526020018273ffffffffffffffffffffffffffffffffffffffff1681526020013073ffffffffffffffffffffffffffffffffffffffff168152506000808201518160000160006101000a81548173ffffffffffffffffffffffffffffffffffffffff021916908373ffffffffffffffffffffffffffffffffffffffff16021790555060208201518160010160006101000a81548173ffffffffffffffffffffffffffffffffffffffff021916908373ffffffffffffffffffffffffffffffffffffffff16021790555060408201518160020160006101000a81548173ffffffffffffffffffffffffffffffffffffffff021916908373ffffffffffffffffffffffffffffffffffffffff16021790555060608201518160030160006101000a81548173ffffffffffffffffffffffffffffffffffffffff021916908373ffffffffffffffffffffffffffffffffffffffff160217905550905050505050610280565b6000815190506101e281610269565b92915050565b6000806000606084860312156101fd57600080fd5b600061020b868287016101d3565b935050602061021c868287016101d3565b925050604061022d868287016101d3565b9150509250925092565b600061024282610249565b9050919050565b600073ffffffffffffffffffffffffffffffffffffffff82169050919050565b61027281610237565b811461027d57600080fd5b50565b6104748061028f6000396000f3fe608060405234801561001057600080fd5b50600436106100365760003560e01c8063120e85231461003b5780633c4f81cd14610057575b600080fd5b61005560048036038101906100509190610269565b610078565b005b61005f6101a1565b60405161006f94939291906102e6565b60405180910390f35b600060010160009054906101000a900473ffffffffffffffffffffffffffffffffffffffff1673ffffffffffffffffffffffffffffffffffffffff163373ffffffffffffffffffffffffffffffffffffffff161461010b576040517f08c379a000000000000000000000000000000000000000000000000000000000815260040161010290610354565b60405180910390fd5b600060020160009054906101000a900473ffffffffffffffffffffffffffffffffffffffff1673ffffffffffffffffffffffffffffffffffffffff1663a144819483836040518363ffffffff1660e01b815260040161016b92919061032b565b600060405180830381600087803b15801561018557600080fd5b505af1158015610199573d6000803e3d6000fd5b505050505050565b60008060000160009054906101000a900473ffffffffffffffffffffffffffffffffffffffff16908060010160009054906101000a900473ffffffffffffffffffffffffffffffffffffffff16908060020160009054906101000a900473ffffffffffffffffffffffffffffffffffffffff16908060030160009054906101000a900473ffffffffffffffffffffffffffffffffffffffff16905084565b60008135905061024e81610410565b92915050565b60008135905061026381610427565b92915050565b6000806040838503121561027c57600080fd5b600061028a8582860161023f565b925050602061029b85828601610254565b9150509250929050565b6102ae81610385565b82525050565b60006102c1602d83610374565b91506102cc826103c1565b604082019050919050565b6102e0816103b7565b82525050565b60006080820190506102fb60008301876102a5565b61030860208301866102a5565b61031560408301856102a5565b61032260608301846102a5565b95945050505050565b600060408201905061034060008301856102a5565b61034d60208301846102d7565b9392505050565b6000602082019050818103600083015261036d816102b4565b9050919050565b600082825260208201905092915050565b600061039082610397565b9050919050565b600073ffffffffffffffffffffffffffffffffffffffff82169050919050565b6000819050919050565b7f4e6f207469656e6573207065726d69736f73207061726120656a65637574617260008201527f20657374612066756e63696f6e00000000000000000000000000000000000000602082015250565b61041981610385565b811461042457600080fd5b50565b610430816103b7565b811461043b57600080fd5b5056fea2646970667358221220f5db17e244ff2d6bc28b986b3224b521133c5e8c103ac33bfb08a81e1c02858d64736f6c63430008040033a2646970667358221220c46b9fd50d96280b87cb6281f1596227e5684b6fdce18252cb7f7e8106198ac264736f6c6343000804003360806040523480156200001157600080fd5b506040518060400160405280600781526020017f4c6f7465726961000000000000000000000000000000000000000000000000008152506040518060400160405280600381526020017f5354450000000000000000000000000000000000000000000000000000000000815250816000908051906020019062000096929190620000f9565b508060019080519060200190620000af929190620000f9565b50505033600660006101000a81548173ffffffffffffffffffffffffffffffffffffffff021916908373ffffffffffffffffffffffffffffffffffffffff1602179055506200020e565b8280546200010790620001a9565b90600052602060002090601f0160209004810192826200012b576000855562000177565b82601f106200014657805160ff191683800117855562000177565b8280016001018555821562000177579182015b828111156200017657825182559160200191906001019062000159565b5b5090506200018691906200018a565b5090565b5b80821115620001a55760008160009055506001016200018b565b5090565b60006002820490506001821680620001c257607f821691505b60208210811415620001d957620001d8620001df565b5b50919050565b7f4e487b7100000000000000000000000000000000000000000000000000000000600052602260045260246000fd5b6127f1806200021e6000396000f3fe608060405234801561001057600080fd5b50600436106100f55760003560e01c80636352211e11610097578063a22cb46511610066578063a22cb46514610284578063b88d4fde146102a0578063c87b56dd146102bc578063e985e9c5146102ec576100f5565b80636352211e146101ea57806370a082311461021a57806395d89b411461024a578063a144819414610268576100f5565b8063095ea7b3116100d3578063095ea7b31461017857806323b872dd1461019457806342842e0e146101b05780635aa0c73d146101cc576100f5565b806301ffc9a7146100fa57806306fdde031461012a578063081812fc14610148575b600080fd5b610114600480360381019061010f9190611cd0565b61031c565b604051610121919061204a565b60405180910390f35b6101326103fe565b60405161013f9190612065565b60405180910390f35b610162600480360381019061015d9190611d22565b610490565b60405161016f9190611fe3565b60405180910390f35b610192600480360381019061018d9190611c94565b6104d6565b005b6101ae60048036038101906101a99190611b8e565b6105ee565b005b6101ca60048036038101906101c59190611b8e565b61064e565b005b6101d461066e565b6040516101e19190611fe3565b60405180910390f35b61020460048036038101906101ff9190611d22565b610694565b6040516102119190611fe3565b60405180910390f35b610234600480360381019061022f9190611b00565b61071b565b6040516102419190612207565b60405180910390f35b6102526107d3565b60405161025f9190612065565b60405180910390f35b610282600480360381019061027d9190611c94565b610865565b005b61029e60048036038101906102999190611c58565b61098b565b005b6102ba60048036038101906102b59190611bdd565b6109a1565b005b6102d660048036038101906102d19190611d22565b610a03565b6040516102e39190612065565b60405180910390f35b61030660048036038101906103019190611b52565b610a6b565b604051610313919061204a565b60405180910390f35b60007f80ac58cd000000000000000000000000000000000000000000000000000000007bffffffffffffffffffffffffffffffffffffffffffffffffffffffff1916827bffffffffffffffffffffffffffffffffffffffffffffffffffffffff191614806103e757507f5b5e139f000000000000000000000000000000000000000000000000000000007bffffffffffffffffffffffffffffffffffffffffffffffffffffffff1916827bffffffffffffffffffffffffffffffffffffffffffffffffffffffff1916145b806103f757506103f682610aff565b5b9050919050565b60606000805461040d90612371565b80601f016020809104026020016040519081016040528092919081815260200182805461043990612371565b80156104865780601f1061045b57610100808354040283529160200191610486565b820191906000526020600020905b81548152906001019060200180831161046957829003601f168201915b5050505050905090565b600061049b82610b69565b6004600083815260200190815260200160002060009054906101000a900473ffffffffffffffffffffffffffffffffffffffff169050919050565b60006104e182610694565b90508073ffffffffffffffffffffffffffffffffffffffff168373ffffffffffffffffffffffffffffffffffffffff161415610552576040517f08c379a0000000000000000000000000000000000000000000000000000000008152600401610549906121c7565b60405180910390fd5b8073ffffffffffffffffffffffffffffffffffffffff16610571610bb4565b73ffffffffffffffffffffffffffffffffffffffff1614806105a0575061059f8161059a610bb4565b610a6b565b5b6105df576040517f08c379a00000000000000000000000000000000000000000000000000000000081526004016105d6906121e7565b60405180910390fd5b6105e98383610bbc565b505050565b6105ff6105f9610bb4565b82610c75565b61063e576040517f08c379a000000000000000000000000000000000000000000000000000000000815260040161063590612087565b60405180910390fd5b610649838383610d0a565b505050565b610669838383604051806020016040528060008152506109a1565b505050565b600660009054906101000a900473ffffffffffffffffffffffffffffffffffffffff1681565b6000806106a083611004565b9050600073ffffffffffffffffffffffffffffffffffffffff168173ffffffffffffffffffffffffffffffffffffffff161415610712576040517f08c379a0000000000000000000000000000000000000000000000000000000008152600401610709906121a7565b60405180910390fd5b80915050919050565b60008073ffffffffffffffffffffffffffffffffffffffff168273ffffffffffffffffffffffffffffffffffffffff16141561078c576040517f08c379a000000000000000000000000000000000000000000000000000000000815260040161078390612147565b60405180910390fd5b600360008373ffffffffffffffffffffffffffffffffffffffff1673ffffffffffffffffffffffffffffffffffffffff168152602001908152602001600020549050919050565b6060600180546107e290612371565b80601f016020809104026020016040519081016040528092919081815260200182805461080e90612371565b801561085b5780601f106108305761010080835404028352916020019161085b565b820191906000526020600020905b81548152906001019060200180831161083e57829003601f168201915b5050505050905090565b600660009054906101000a900473ffffffffffffffffffffffffffffffffffffffff1673ffffffffffffffffffffffffffffffffffffffff16635d0eaaaf836040518263ffffffff1660e01b81526004016108c09190611fe3565b60206040518083038186803b1580156108d857600080fd5b505afa1580156108ec573d6000803e3d6000fd5b505050506040513d601f19601f820116820180604052508101906109109190611b29565b73ffffffffffffffffffffffffffffffffffffffff163373ffffffffffffffffffffffffffffffffffffffff161461097d576040517f08c379a000000000000000000000000000000000000000000000000000000000815260040161097490612187565b60405180910390fd5b6109878282611041565b5050565b61099d610996610bb4565b838361105f565b5050565b6109b26109ac610bb4565b83610c75565b6109f1576040517f08c379a00000000000000000000000000000000000000000000000000000000081526004016109e890612087565b60405180910390fd5b6109fd848484846111cc565b50505050565b6060610a0e82610b69565b6000610a18611228565b90506000815111610a385760405180602001604052806000815250610a63565b80610a428461123f565b604051602001610a53929190611fbf565b6040516020818303038152906040525b915050919050565b6000600560008473ffffffffffffffffffffffffffffffffffffffff1673ffffffffffffffffffffffffffffffffffffffff16815260200190815260200160002060008373ffffffffffffffffffffffffffffffffffffffff1673ffffffffffffffffffffffffffffffffffffffff16815260200190815260200160002060009054906101000a900460ff16905092915050565b60007f01ffc9a7000000000000000000000000000000000000000000000000000000007bffffffffffffffffffffffffffffffffffffffffffffffffffffffff1916827bffffffffffffffffffffffffffffffffffffffffffffffffffffffff1916149050919050565b610b7281611363565b610bb1576040517f08c379a0000000000000000000000000000000000000000000000000000000008152600401610ba8906121a7565b60405180910390fd5b50565b600033905090565b816004600083815260200190815260200160002060006101000a81548173ffffffffffffffffffffffffffffffffffffffff021916908373ffffffffffffffffffffffffffffffffffffffff160217905550808273ffffffffffffffffffffffffffffffffffffffff16610c2f83610694565b73ffffffffffffffffffffffffffffffffffffffff167f8c5be1e5ebec7d5bd14f71427d1e84f3dd0314c0f7b2291e5b200ac8c7c3b92560405160405180910390a45050565b600080610c8183610694565b90508073ffffffffffffffffffffffffffffffffffffffff168473ffffffffffffffffffffffffffffffffffffffff161480610cc35750610cc28185610a6b565b5b80610d0157508373ffffffffffffffffffffffffffffffffffffffff16610ce984610490565b73ffffffffffffffffffffffffffffffffffffffff16145b91505092915050565b8273ffffffffffffffffffffffffffffffffffffffff16610d2a82610694565b73ffffffffffffffffffffffffffffffffffffffff1614610d80576040517f08c379a0000000000000000000000000000000000000000000000000000000008152600401610d77906120c7565b60405180910390fd5b600073ffffffffffffffffffffffffffffffffffffffff168273ffffffffffffffffffffffffffffffffffffffff161415610df0576040517f08c379a0000000000000000000000000000000000000000000000000000000008152600401610de790612107565b60405180910390fd5b610dfd83838360016113a4565b8273ffffffffffffffffffffffffffffffffffffffff16610e1d82610694565b73ffffffffffffffffffffffffffffffffffffffff1614610e73576040517f08c379a0000000000000000000000000000000000000000000000000000000008152600401610e6a906120c7565b60405180910390fd5b6004600082815260200190815260200160002060006101000a81549073ffffffffffffffffffffffffffffffffffffffff02191690556001600360008573ffffffffffffffffffffffffffffffffffffffff1673ffffffffffffffffffffffffffffffffffffffff168152602001908152602001600020600082825403925050819055506001600360008473ffffffffffffffffffffffffffffffffffffffff1673ffffffffffffffffffffffffffffffffffffffff16815260200190815260200160002060008282540192505081905550816002600083815260200190815260200160002060006101000a81548173ffffffffffffffffffffffffffffffffffffffff021916908373ffffffffffffffffffffffffffffffffffffffff160217905550808273ffffffffffffffffffffffffffffffffffffffff168473ffffffffffffffffffffffffffffffffffffffff167fddf252ad1be2c89b69c2b068fc378daa952ba7f163c4a11628f55a4df523b3ef60405160405180910390a4610fff83838360016113aa565b505050565b60006002600083815260200190815260200160002060009054906101000a900473ffffffffffffffffffffffffffffffffffffffff169050919050565b61105b8282604051806020016040528060008152506113b0565b5050565b8173ffffffffffffffffffffffffffffffffffffffff168373ffffffffffffffffffffffffffffffffffffffff1614156110ce576040517f08c379a00000000000000000000000000000000000000000000000000000000081526004016110c590612127565b60405180910390fd5b80600560008573ffffffffffffffffffffffffffffffffffffffff1673ffffffffffffffffffffffffffffffffffffffff16815260200190815260200160002060008473ffffffffffffffffffffffffffffffffffffffff1673ffffffffffffffffffffffffffffffffffffffff16815260200190815260200160002060006101000a81548160ff0219169083151502179055508173ffffffffffffffffffffffffffffffffffffffff168373ffffffffffffffffffffffffffffffffffffffff167f17307eab39ab6107e8899845ad3d59bd9653f200f220920489ca2b5937696c31836040516111bf919061204a565b60405180910390a3505050565b6111d7848484610d0a565b6111e38484848461140b565b611222576040517f08c379a0000000000000000000000000000000000000000000000000000000008152600401611219906120a7565b60405180910390fd5b50505050565b606060405180602001604052806000815250905090565b60606000600161124e846115a2565b01905060008167ffffffffffffffff811115611293577f4e487b7100000000000000000000000000000000000000000000000000000000600052604160045260246000fd5b6040519080825280601f01601f1916602001820160405280156112c55781602001600182028036833780820191505090505b509050600082602001820190505b600115611358578080600190039150507f3031323334353637383961626364656600000000000000000000000000000000600a86061a8153600a8581611342577f4e487b7100000000000000000000000000000000000000000000000000000000600052601260045260246000fd5b049450600085141561135357611358565b6112d3565b819350505050919050565b60008073ffffffffffffffffffffffffffffffffffffffff1661138583611004565b73ffffffffffffffffffffffffffffffffffffffff1614159050919050565b50505050565b50505050565b6113ba83836117d9565b6113c7600084848461140b565b611406576040517f08c379a00000000000000000000000000000000000000000000000000000000081526004016113fd906120a7565b60405180910390fd5b505050565b600061142c8473ffffffffffffffffffffffffffffffffffffffff166119f7565b15611595578373ffffffffffffffffffffffffffffffffffffffff1663150b7a02611455610bb4565b8786866040518563ffffffff1660e01b81526004016114779493929190611ffe565b602060405180830381600087803b15801561149157600080fd5b505af19250505080156114c257506040513d601f19601f820116820180604052508101906114bf9190611cf9565b60015b611545573d80600081146114f2576040519150601f19603f3d011682016040523d82523d6000602084013e6114f7565b606091505b5060008151141561153d576040517f08c379a0000000000000000000000000000000000000000000000000000000008152600401611534906120a7565b60405180910390fd5b805181602001fd5b63150b7a0260e01b7bffffffffffffffffffffffffffffffffffffffffffffffffffffffff1916817bffffffffffffffffffffffffffffffffffffffffffffffffffffffff19161491505061159a565b600190505b949350505050565b600080600090507a184f03e93ff9f4daa797ed6e38ed64bf6a1f0100000000000000008310611626577a184f03e93ff9f4daa797ed6e38ed64bf6a1f010000000000000000838161161c577f4e487b7100000000000000000000000000000000000000000000000000000000600052601260045260246000fd5b0492506040810190505b6d04ee2d6d415b85acef81000000008310611689576d04ee2d6d415b85acef8100000000838161167f577f4e487b7100000000000000000000000000000000000000000000000000000000600052601260045260246000fd5b0492506020810190505b662386f26fc1000083106116de57662386f26fc1000083816116d4577f4e487b7100000000000000000000000000000000000000000000000000000000600052601260045260246000fd5b0492506010810190505b6305f5e100831061172d576305f5e1008381611723577f4e487b7100000000000000000000000000000000000000000000000000000000600052601260045260246000fd5b0492506008810190505b612710831061177857612710838161176e577f4e487b7100000000000000000000000000000000000000000000000000000000600052601260045260246000fd5b0492506004810190505b606483106117c157606483816117b7577f4e487b7100000000000000000000000000000000000000000000000000000000600052601260045260246000fd5b0492506002810190505b600a83106117d0576001810190505b80915050919050565b600073ffffffffffffffffffffffffffffffffffffffff168273ffffffffffffffffffffffffffffffffffffffff161415611849576040517f08c379a000000000000000000000000000000000000000000000000000000000815260040161184090612167565b60405180910390fd5b61185281611363565b15611892576040517f08c379a0000000000000000000000000000000000000000000000000000000008152600401611889906120e7565b60405180910390fd5b6118a06000838360016113a4565b6118a981611363565b156118e9576040517f08c379a00000000000000000000000000000000000000000000000000000000081526004016118e0906120e7565b60405180910390fd5b6001600360008473ffffffffffffffffffffffffffffffffffffffff1673ffffffffffffffffffffffffffffffffffffffff16815260200190815260200160002060008282540192505081905550816002600083815260200190815260200160002060006101000a81548173ffffffffffffffffffffffffffffffffffffffff021916908373ffffffffffffffffffffffffffffffffffffffff160217905550808273ffffffffffffffffffffffffffffffffffffffff16600073ffffffffffffffffffffffffffffffffffffffff167fddf252ad1be2c89b69c2b068fc378daa952ba7f163c4a11628f55a4df523b3ef60405160405180910390a46119f36000838360016113aa565b5050565b6000808273ffffffffffffffffffffffffffffffffffffffff163b119050919050565b6000611a2d611a2884612247565b612222565b905082815260208101848484011115611a4557600080fd5b611a5084828561232f565b509392505050565b600081359050611a678161275f565b92915050565b600081519050611a7c8161275f565b92915050565b600081359050611a9181612776565b92915050565b600081359050611aa68161278d565b92915050565b600081519050611abb8161278d565b92915050565b600082601f830112611ad257600080fd5b8135611ae2848260208601611a1a565b91505092915050565b600081359050611afa816127a4565b92915050565b600060208284031215611b1257600080fd5b6000611b2084828501611a58565b91505092915050565b600060208284031215611b3b57600080fd5b6000611b4984828501611a6d565b91505092915050565b60008060408385031215611b6557600080fd5b6000611b7385828601611a58565b9250506020611b8485828601611a58565b9150509250929050565b600080600060608486031215611ba357600080fd5b6000611bb186828701611a58565b9350506020611bc286828701611a58565b9250506040611bd386828701611aeb565b9150509250925092565b60008060008060808587031215611bf357600080fd5b6000611c0187828801611a58565b9450506020611c1287828801611a58565b9350506040611c2387828801611aeb565b925050606085013567ffffffffffffffff811115611c4057600080fd5b611c4c87828801611ac1565b91505092959194509250565b60008060408385031215611c6b57600080fd5b6000611c7985828601611a58565b9250506020611c8a85828601611a82565b9150509250929050565b60008060408385031215611ca757600080fd5b6000611cb585828601611a58565b9250506020611cc685828601611aeb565b9150509250929050565b600060208284031215611ce257600080fd5b6000611cf084828501611a97565b91505092915050565b600060208284031215611d0b57600080fd5b6000611d1984828501611aac565b91505092915050565b600060208284031215611d3457600080fd5b6000611d4284828501611aeb565b91505092915050565b611d54816122bb565b82525050565b611d63816122cd565b82525050565b6000611d7482612278565b611d7e818561228e565b9350611d8e81856020860161233e565b611d9781612432565b840191505092915050565b6000611dad82612283565b611db7818561229f565b9350611dc781856020860161233e565b611dd081612432565b840191505092915050565b6000611de682612283565b611df081856122b0565b9350611e0081856020860161233e565b80840191505092915050565b6000611e19602d8361229f565b9150611e2482612443565b604082019050919050565b6000611e3c60328361229f565b9150611e4782612492565b604082019050919050565b6000611e5f60258361229f565b9150611e6a826124e1565b604082019050919050565b6000611e82601c8361229f565b9150611e8d82612530565b602082019050919050565b6000611ea560248361229f565b9150611eb082612559565b604082019050919050565b6000611ec860198361229f565b9150611ed3826125a8565b602082019050919050565b6000611eeb60298361229f565b9150611ef6826125d1565b604082019050919050565b6000611f0e60208361229f565b9150611f1982612620565b602082019050919050565b6000611f31602d8361229f565b9150611f3c82612649565b604082019050919050565b6000611f5460188361229f565b9150611f5f82612698565b602082019050919050565b6000611f7760218361229f565b9150611f82826126c1565b604082019050919050565b6000611f9a603d8361229f565b9150611fa582612710565b604082019050919050565b611fb981612325565b82525050565b6000611fcb8285611ddb565b9150611fd78284611ddb565b91508190509392505050565b6000602082019050611ff86000830184611d4b565b92915050565b60006080820190506120136000830187611d4b565b6120206020830186611d4b565b61202d6040830185611fb0565b818103606083015261203f8184611d69565b905095945050505050565b600060208201905061205f6000830184611d5a565b92915050565b6000602082019050818103600083015261207f8184611da2565b905092915050565b600060208201905081810360008301526120a081611e0c565b9050919050565b600060208201905081810360008301526120c081611e2f565b9050919050565b600060208201905081810360008301526120e081611e52565b9050919050565b6000602082019050818103600083015261210081611e75565b9050919050565b6000602082019050818103600083015261212081611e98565b9050919050565b6000602082019050818103600083015261214081611ebb565b9050919050565b6000602082019050818103600083015261216081611ede565b9050919050565b6000602082019050818103600083015261218081611f01565b9050919050565b600060208201905081810360008301526121a081611f24565b9050919050565b600060208201905081810360008301526121c081611f47565b9050919050565b600060208201905081810360008301526121e081611f6a565b9050919050565b6000602082019050818103600083015261220081611f8d565b9050919050565b600060208201905061221c6000830184611fb0565b92915050565b600061222c61223d565b905061223882826123a3565b919050565b6000604051905090565b600067ffffffffffffffff82111561226257612261612403565b5b61226b82612432565b9050602081019050919050565b600081519050919050565b600081519050919050565b600082825260208201905092915050565b600082825260208201905092915050565b600081905092915050565b60006122c682612305565b9050919050565b60008115159050919050565b60007fffffffff0000000000000000000000000000000000000000000000000000000082169050919050565b600073ffffffffffffffffffffffffffffffffffffffff82169050919050565b6000819050919050565b82818337600083830152505050565b60005b8381101561235c578082015181840152602081019050612341565b8381111561236b576000848401525b50505050565b6000600282049050600182168061238957607f821691505b6020821081141561239d5761239c6123d4565b5b50919050565b6123ac82612432565b810181811067ffffffffffffffff821117156123cb576123ca612403565b5b80604052505050565b7f4e487b7100000000000000000000000000000000000000000000000000000000600052602260045260246000fd5b7f4e487b7100000000000000000000000000000000000000000000000000000000600052604160045260246000fd5b6000601f19601f8301169050919050565b7f4552433732313a2063616c6c6572206973206e6f7420746f6b656e206f776e6560008201527f72206f7220617070726f76656400000000000000000000000000000000000000602082015250565b7f4552433732313a207472616e7366657220746f206e6f6e20455243373231526560008201527f63656976657220696d706c656d656e7465720000000000000000000000000000602082015250565b7f4552433732313a207472616e736665722066726f6d20696e636f72726563742060008201527f6f776e6572000000000000000000000000000000000000000000000000000000602082015250565b7f4552433732313a20746f6b656e20616c7265616479206d696e74656400000000600082015250565b7f4552433732313a207472616e7366657220746f20746865207a65726f2061646460008201527f7265737300000000000000000000000000000000000000000000000000000000602082015250565b7f4552433732313a20617070726f766520746f2063616c6c657200000000000000600082015250565b7f4552433732313a2061646472657373207a65726f206973206e6f74206120766160008201527f6c6964206f776e65720000000000000000000000000000000000000000000000602082015250565b7f4552433732313a206d696e7420746f20746865207a65726f2061646472657373600082015250565b7f4e6f207469656e6573207065726d69736f73207061726120656a65637574617260008201527f20657374612066756e63696f6e00000000000000000000000000000000000000602082015250565b7f4552433732313a20696e76616c696420746f6b656e2049440000000000000000600082015250565b7f4552433732313a20617070726f76616c20746f2063757272656e74206f776e6560008201527f7200000000000000000000000000000000000000000000000000000000000000602082015250565b7f4552433732313a20617070726f76652063616c6c6572206973206e6f7420746f60008201527f6b656e206f776e6572206f7220617070726f76656420666f7220616c6c000000602082015250565b612768816122bb565b811461277357600080fd5b50565b61277f816122cd565b811461278a57600080fd5b50565b612796816122d9565b81146127a157600080fd5b50565b6127ad81612325565b81146127b857600080fd5b5056fea2646970667358221220fec58b829b428aa0d395e43c0ae6f4cd3aa55032d6b19f9032dd59e34ba8096564736f6c63430008040033",
  "immutableReferences": {},
  "source": "// SPDX-License-Identifier: MIT\npragma solidity ^0.8.4;\n\nimport \"@openzeppelin/contracts/token/ERC20/ERC20.sol\";\nimport \"@openzeppelin/contracts/token/ERC721/ERC721.sol\";\nimport \"@openzeppelin/contracts/access/Ownable.sol\";\n\ncontract loteria is ERC20, Ownable {\n\n    // ============================================\n    // Gestion de los tokens\n    // ============================================\n\n    // Direccion del contrato NFT del proyecto\n    address public nft;\n\n    // Constructor \n    constructor() ERC20(\"Loteria\", \"JA\"){\n        _mint(address(this), 100000);\n        nft = address(new mainERC721());\n    }\n\n    // Ganador del premio de la loteria\n    address public ganador;\n\n    // Registro del usuario\n    mapping(address => address) public usuario_contract;\n\n    // Precio de los tokens ERC-20\n    function precioTokens(uint256 _numTokens) internal pure returns (uint256){\n        return _numTokens * (1 ether);\n    }\n\n    // Visualizacion del balance de tokens ERC-20 de un usuario\n    function balanceTokens(address _account) public view returns (uint256){\n        return balanceOf(_account);\n    }\n\n    // Visualizacion del balance de tokens ERC-20 del Smart Contract\n    function balanceTokensSC() public view returns (uint256){\n        return balanceOf(address(this));\n    }\n\n    // Visualizacion del balance de ethers del Smart Contract\n    function balanceEthersSC() public view returns (uint256){\n        return address(this).balance / 10**18;\n    }\n\n    // Generacion de nuevos Tokens ERC-20\n    function mint(uint256 _cantidad) public onlyOwner {\n        _mint(address(this), _cantidad);\n    }\n\n    // Registro de usuarios\n    function registrar() internal {\n        address addr_personal_contract = address(new boletosNFTs(msg.sender, address(this), nft));\n        usuario_contract[msg.sender] = addr_personal_contract; \n    }\n\n    // Informacion de un usuario\n    function usersInfo(address _account) public view returns (address){\n        return usuario_contract[_account];\n    }\n\n    // Compra de tokens ERC-20\n    function compraTokens(uint256 _numTokens) public payable {\n        // Registro del ususario\n        if(usuario_contract[msg.sender] == address(0)){\n            registrar();\n        }\n        // Establecimiento del coste de los tokens a comprar\n        uint256 coste = precioTokens(_numTokens);\n        // Evaluacion del dinero que el cliente paga por los tokens\n        require(msg.value >= coste, \"Compra menos tokens o paga con mas ethers\");\n        // Obtencion del numero de tokens ERC-20 disponibles\n        uint256 balance = balanceTokensSC();\n        require(_numTokens <= balance, \"Compra un numero menor de tokens\");\n        // Devolucion del dinero sobrante\n        uint256 returnValue = msg.value - coste;\n        // El Smart Contract devuelve la cantidad restante\n        payable(msg.sender).transfer(returnValue);\n        // Envio de los tokens al cliente/usuario\n        _transfer(address(this), msg.sender, _numTokens);\n    }\n\n    // Devolucion de tokens al Smart Contract\n    function devolverTokens(uint _numTokens) public payable {\n        // El numero de tokens debe ser mayor a 0\n        require(_numTokens > 0, \"Necesitas devolver un numero de tokens mayor a 0\");\n        // El usuario debe acreditar tener los tokens que quiere devolver\n        require(_numTokens <= balanceTokens(msg.sender), \"No tienes los tokens que deseas devolver\");\n        // El usuario transfiere los tokens al Smart Contract\n        _transfer(msg.sender, address(this), _numTokens);\n        // El Smart Contract envia los ethers al usuario\n        payable(msg.sender).transfer(precioTokens(_numTokens));\n    }\n\n    // ============================================\n    // Gestion de la loteria\n    // ============================================\n\n    // Precio del boleto de loteria (en tokens ERC-20)\n    uint public precioBoleto = 5;\n    // Relacion: persona que compra los boletos -> el numero de los boletos\n    mapping(address => uint []) idPersona_boletos;\n    // Relacion: boleto -> ganador\n    mapping(uint => address) ADNBoleto;\n    // Numero aleatorio\n    uint randNonce = 0;\n    // Boletos de la loteria generadors\n    uint [] boletosComprados;\n\n    // Compra de boletos de loteria\n    function compraBoleto(uint _numBoletos) public {\n        // Precio total de los boletos a comprar\n        uint precioTotal = _numBoletos*precioBoleto;\n        // Verificacion de los tokens del usuario\n        require(precioTotal <= balanceTokens(msg.sender), \n                \"No tienes tokens suficientes\");\n        // Transferencia de tokens del usuario al Smart Contract\n        _transfer(msg.sender, address(this), precioTotal);\n        /* Recoge la marca de tiempo (block.timestamp), msg.sender y un Nonce\n        (un numero que solo se utiliza una vez, para que no ejecutemos dos veces la misma \n        funcion de hash con los mismos parametros de entrada) en incremento.\n        Se utiliza 'keccak256 'para convertir estas entradas a un hash aleatorio, \n        convertir ese hash a un uint y luego utilizamos % 10000 para tomar los ultimos 4 digitos,\n        dando un valor aleatorio entre 0 - 9999. */\n        for (uint i = 0; i < _numBoletos; i++){\n            uint random = uint(keccak256(abi.encodePacked(block.timestamp, msg.sender, randNonce))) % 10000;\n            randNonce++;\n            // Almacenamiento de los datos del boletos enlazados al usuario\n            idPersona_boletos[msg.sender].push(random);\n            // Almacenamiento de los datos de los boletos\n            boletosComprados.push(random);\n            // Asignacion del ADN del boleto para la generacion de un ganador\n            ADNBoleto[random] = msg.sender;\n            // Creacion de un nuevo NFT para el numero de boleto\n            boletosNFTs(usuario_contract[msg.sender]).mintBoleto(msg.sender, random);\n        }\n    }\n\n    // Visualizacion de los boletos del usuario\n    function tusBoletos(address _propietario) public view returns(uint [] memory){\n        return idPersona_boletos[_propietario];\n    }\n\n    // Generacion del ganador de la loteria\n    function generarGanador() public onlyOwner {\n        // Declaracion de la longitud del array\n        uint longitud = boletosComprados.length;\n        // Verificacion de la compra de al menos de 1 boleto\n        require(longitud > 0, \"No hay boletos comprados\");\n        // Eleccion aleatoria de un numero entre: [0-Longitud]\n        uint random = uint(uint(keccak256(abi.encodePacked(block.timestamp))) % longitud);\n        // Seleccion del numero aleatorio\n        uint eleccion = boletosComprados[random];\n        // Direccion del ganador de la loteria\n        ganador = ADNBoleto[eleccion];\n        // Envio del 95% del premio de loteria al ganador\n        payable(ganador).transfer(address(this).balance * 95 / 100);\n        // Envio del 5% del premio de loteria al owner\n        payable(owner()).transfer(address(this).balance * 5 / 100);\n    }\n\n}\n\n// Smart Contract de NFTs\ncontract mainERC721 is ERC721 {\n\n    address public direccionLoteria;\n    constructor() ERC721(\"Loteria\", \"STE\"){\n        direccionLoteria = msg.sender;\n    }\n\n    // Creacion de NFTs\n    function safeMint(address _propietario, uint256 _boleto) public {\n        require(msg.sender == loteria(direccionLoteria).usersInfo(_propietario),\n                \"No tienes permisos para ejecutar esta funcion\");\n        _safeMint(_propietario, _boleto);\n    }\n\n}\n\ncontract boletosNFTs {\n\n    // Datos relevantes del propietario \n    struct Owner {\n        address direccionPropietario;\n        address contratoPadre;\n        address contratoNFT;\n        address contratoUsuario;\n    }\n    // Estructura de datos de tipo Owner\n    Owner public propietario;\n\n    // Constructor del Smart Contract (hijo)\n    constructor(address _propietario, address _contratoPadre, address _contratoNFT){\n        propietario = Owner(_propietario, \n                            _contratoPadre,\n                            _contratoNFT, \n                            address(this));\n    }\n\n    // Conversion de los numeros de los boletos de loteria\n    function mintBoleto(address _propietario, uint _boleto) public {\n        require(msg.sender == propietario.contratoPadre, \n                \"No tienes permisos para ejecutar esta funcion\");\n        mainERC721(propietario.contratoNFT).safeMint(_propietario, _boleto);\n    }\n\n}\n",
  "sourcePath": "/Users/mateujoanperello/Desktop/Dapps/Loteria/src/contracts/loteria.sol",
  "compiler": {
    "name": "solc",
    "version": "0.8.4+commit.c7e474f2.Emscripten.clang"
  },
  "schemaVersion": "3.4.7",
  "updatedAt": "2023-06-10T22:59:53.919Z",
  "networkType": "ethereum",
  "devdoc": {
    "kind": "dev",
    "methods": {
      "allowance(address,address)": {
        "details": "See {IERC20-allowance}."
      },
      "approve(address,uint256)": {
        "details": "See {IERC20-approve}. NOTE: If `amount` is the maximum `uint256`, the allowance is not updated on `transferFrom`. This is semantically equivalent to an infinite approval. Requirements: - `spender` cannot be the zero address."
      },
      "balanceOf(address)": {
        "details": "See {IERC20-balanceOf}."
      },
      "decimals()": {
        "details": "Returns the number of decimals used to get its user representation. For example, if `decimals` equals `2`, a balance of `505` tokens should be displayed to a user as `5.05` (`505 / 10 ** 2`). Tokens usually opt for a value of 18, imitating the relationship between Ether and Wei. This is the default value returned by this function, unless it's overridden. NOTE: This information is only used for _display_ purposes: it in no way affects any of the arithmetic of the contract, including {IERC20-balanceOf} and {IERC20-transfer}."
      },
      "decreaseAllowance(address,uint256)": {
        "details": "Atomically decreases the allowance granted to `spender` by the caller. This is an alternative to {approve} that can be used as a mitigation for problems described in {IERC20-approve}. Emits an {Approval} event indicating the updated allowance. Requirements: - `spender` cannot be the zero address. - `spender` must have allowance for the caller of at least `subtractedValue`."
      },
      "increaseAllowance(address,uint256)": {
        "details": "Atomically increases the allowance granted to `spender` by the caller. This is an alternative to {approve} that can be used as a mitigation for problems described in {IERC20-approve}. Emits an {Approval} event indicating the updated allowance. Requirements: - `spender` cannot be the zero address."
      },
      "name()": {
        "details": "Returns the name of the token."
      },
      "owner()": {
        "details": "Returns the address of the current owner."
      },
      "renounceOwnership()": {
        "details": "Leaves the contract without owner. It will not be possible to call `onlyOwner` functions. Can only be called by the current owner. NOTE: Renouncing ownership will leave the contract without an owner, thereby disabling any functionality that is only available to the owner."
      },
      "symbol()": {
        "details": "Returns the symbol of the token, usually a shorter version of the name."
      },
      "totalSupply()": {
        "details": "See {IERC20-totalSupply}."
      },
      "transfer(address,uint256)": {
        "details": "See {IERC20-transfer}. Requirements: - `to` cannot be the zero address. - the caller must have a balance of at least `amount`."
      },
      "transferFrom(address,address,uint256)": {
        "details": "See {IERC20-transferFrom}. Emits an {Approval} event indicating the updated allowance. This is not required by the EIP. See the note at the beginning of {ERC20}. NOTE: Does not update the allowance if the current allowance is the maximum `uint256`. Requirements: - `from` and `to` cannot be the zero address. - `from` must have a balance of at least `amount`. - the caller must have allowance for ``from``'s tokens of at least `amount`."
      },
      "transferOwnership(address)": {
        "details": "Transfers ownership of the contract to a new account (`newOwner`). Can only be called by the current owner."
      }
    },
    "version": 1
  },
  "userdoc": {
    "kind": "user",
    "methods": {},
    "version": 1
  }
}